:100000000C9472000C9493000C9493000C94930045
:100010000C9493000C9493000C9493000C94930014
:100020000C9493000C9493000C9493000C94930004
:100030000C9493000C9493000C9493000C949300F4
:100040000C9493000C9493000C9493000C949300E4
:100050000C9493000C9493000C9493000C949300D4
:100060000C9493000C9493000C9493000C949300C4
:100070000C9493000C9493000C9493000C949300B4
:100080000C9493000C9493000C9493000C949300A4
:100090000C9493000C9493000C9493000C94930094
:1000A0000C9493000C9493000C9493000C94930084
:1000B0000C9493000C942F020C9493000C949300D6
:1000C0000C9493000C9493000C9493000C94930064
:1000D0000C9493000C9493000C9493000C94930054
:1000E0000C94930011241FBECFEFD1E2DEBFCDBF31
:1000F00000E00CBF12E0A0E0B2E0E8EDF5E000E0C7
:100100000BBF02C007900D92A030B107D9F712E0E3
:10011000A0E0B2E001C01D92AF30B107E1F70E944C
:100120007C020C94EA020C94000086E69EE00197A3
:10013000F1F700004098419880E388B9429AEFEFC8
:10014000F7E43197F1F700C000004298E6E6FEE0E0
:100150003197F1F700004098419888B9429AEFEF43
:10016000F7E43197F1F700C000004298E6E6FEE0C0
:100170003197F1F700004098419888B9429A8FEF83
:1001800097E40197F1F700C000004298E6E6FEE030
:100190003197F1F700004098419880E288B9429A7F
:1001A0008FEF97E40197F1F700C00000429808959F
:1001B00098B19F7098B998B1282F207F922B98B949
:1001C00040984198429AEFEFF7E43197F1F700C079
:1001D0000000429898B19F7098B998B18295807F3D
:1001E000892B88B940984198429A8FEF97E40197FC
:1001F000F1F700C000004298089586E69EE001975E
:10020000F1F7000088E20E94D80081E00E94D80047
:1002100086E00E94D8008EE00E94D80080E80E940C
:10022000D800089598B19F7098B998B1282F207F71
:10023000922B98B9409A4198429AEFEFF7E43197A0
:10024000F1F700C00000429898B19F7098B998B13A
:100250008295807F892B88B9409A4198429A8FEF86
:1002600097E40197F1F700C000004298089580E8F4
:100270000E94D8000895CF93DF93EC0188818823F2
:1002800031F021960E94120189918823D9F7DF91DC
:10029000CF910895823079F0833018F48130C9F419
:1002A00005C0833069F08430A1F40FC0862F8158D7
:1002B0000E94D8000895862F81540E94D800089586
:1002C000862F8D560E94D8000895862F8D520E9449
:1002D000D80008950F931F93CF93DF938A01E9010C
:1002E000882311F0662319F40E94370102C00E948E
:1002F0004A01C530D10571F4C80160E177E20E947E
:100300009902CB01C09690930102809300020E9453
:10031000120103C0C430D105B9F4C80168EE73E01E
:100320000E949902CB0170930302609302026AE07B
:1003300070E00E949902C09690930E0280930D0285
:100340000E94120181E001C080E0C330D10511F0AC
:100350008130B1F4C80164E670E00E949902CB01DB
:1003600070930302609302026AE070E00E949902B7
:10037000C09690930A02809309020E94120181E0C4
:10038000C230D10511F08130B1F42AE030E0C8016B
:10039000B9010E949902CB0170930302609302029B
:1003A000B9010E949902C0969093070280930602B9
:1003B0000E94120181E0C130D10511F0813061F459
:1003C000C8016AE070E00E949902C09690930C0206
:1003D00080930B020E941201C630D1051CF085E407
:1003E0000E941201DF91CF911F910F91089581E03A
:1003F0000E94D800089510920802E1EAF0E010820D
:1004000086EC8093A50087E68093A4001092A90053
:100410001092A8001092AB001092AA001092AD00AA
:100420001092AC001092A7001092A6001092A000AB
:100430001092A20081E080830895F8940E94FB014D
:1004400081E080937200789408951092A10008953D
:1004500087B1876F87B988B1807888B908951F926E
:100460000F920FB60F9211248F93809108028F5F25
:100470008093080286EC8093A50087E68093A40011
:100480008F910F900FBE0F901F9018950F931F9391
:10049000CF93DF9310910802C091A400D091A500E2
:1004A0000E941D02CE01A0E0B0E0BC01CD01675664
:1004B000764C8040904029E939E340E050E00E94CA
:1004C000AD02DA01C901810F911DA11DB11D8C0181
:1004D0009D0148EE53E0049FC001059F900D149FBD
:1004E000900D1124DF91CF911F910F910895F894F1
:1004F0000E942802789408950E9477020E94950035
:100500000E94FD000E941D0282E393EBA2E0815055
:100510009040A040E1F700C000C00E944602AC013C
:1005200081E063E025E030E00E946A0180E090E035
:100530000895AA1BBB1B51E107C0AA1FBB1FA6172A
:10054000B70710F0A61BB70B881F991F5A95A9F77C
:1005500080959095BC01CD01089597FB092E052645
:100560000ED057FD04D014D00AD0001C38F450959A
:100570004095309521953F4F4F4F5F4F0895F6F7C7
:1005800090958095709561957F4F8F4F9F4F0895FF
:10059000A1E21A2EAA1BBB1BFD010DC0AA1FBB1F87
:1005A000EE1FFF1FA217B307E407F50720F0A21BF9
:1005B000B30BE40BF50B661F771F881F991F1A9466
:1005C00069F760957095809590959B01AC01BD0190
:0805D000CF010895F894FFCF5C
:00000001FF
