:100000000C9489000C94AA000C94AA000C94AA00E9
:100010000C94AA000C94AA000C94AA000C94AA00B8
:100020000C94AA000C94AA000C94AA000C94AA00A8
:100030000C94AA000C94AA000C94AA000C94AA0098
:100040000C94AA000C94AA000C94AA000C94AA0088
:100050000C94AA000C94AA000C94AA000C94AA0078
:100060000C94AA000C944A050C94AA000C94AA00C3
:100070000C94AA000C94AA000C94AA000C94AA0058
:100080000C94AA000C94AA000C94AA000C94AA0048
:100090000C94AA000C94AA000C94AA000C94AA0038
:1000A0000C94AA000C94AA000C94AA000C94AA0028
:1000B0000C94AA000C94CE000C94AA000C94AA00F4
:1000C0000C94AA000C94AA000C94AA000C94AA0008
:1000D0000C94AA000C94AA000C94AA000C94AA00F8
:1000E0000C94AA00084AD73B3BCE016E84BCBFFDEE
:1000F000C12F3D6C74319ABD56833DDA3D00C77FF8
:1001000011BED9E4BB4C3E916BAAAABE0000008090
:100110003F0011241FBECFEFD1E2DEBFCDBF00E014
:100120000CBF12E0A0E0B2E0E8E3FBE100E00BBFAF
:1001300002C007900D92A031B107D9F712E0A0E1FB
:10014000B2E001C01D92AA35B107E1F70E94BA09D9
:100150000C949A0D0C94000010923C02E1EAF0E03D
:10016000108286EC8093A50087E68093A40010920D
:10017000A9001092A8001092AB001092AA00109251
:10018000AD001092AC001092A7001092A600109241
:10019000A0001092A20081E0808308951F920F9228
:1001A0000FB60F9211248F9380913C028F5F809342
:1001B0003C0286EC8093A50087E68093A4008F9193
:1001C0000F900FBE0F901F901895F8940E94AC00EE
:1001D00081E080937200789408950F931F93CF93DA
:1001E000DF9310913C02C091A400D091A5000E9421
:1001F000E500CE01A0E0B0E0BC01CD016756764C31
:100200008040904029E939E340E050E00E945D0DD4
:10021000DA01C901810F911DA11DB11D8C019D0144
:1002200048EE53E0049FC001059F900D149F900D70
:100230001124DF91CF911F910F9108950F931F9378
:10024000CF93DF938C01C0913C026091A400709128
:10025000A50080E090E06756764C8040904029E908
:1002600039E340E050E00E945D0DD0E0C20FD31FA3
:100270000115110511F40E94E5008C2F9D2FDF91CF
:10028000CF911F910F91089586E69EE00197F1F7B7
:1002900000004098419880E388B9429AEFEFF7E474
:1002A0003197F1F700C000004298E6E6FEE0319792
:1002B000F1F700004098419888B9429AEFEFF7E4CF
:1002C0003197F1F700C000004298E6E6FEE0319772
:1002D000F1F700004098419888B9429A8FEF97E46F
:1002E0000197F1F700C000004298E6E6FEE0319782
:1002F000F1F700004098419880E288B9429A8FEF68
:1003000097E40197F1F700C000004298089598B172
:100310009F7098B998B1282F207F922B98B9409858
:100320004198429AEFEFF7E43197F1F700C00000EF
:10033000429898B19F7098B998B18295807F892B27
:1003400088B940984198429A8FEF97E40197F1F766
:1003500000C000004298089586E69EE00197F1F7FC
:10036000000088E20E94870181E00E94870186E008
:100370000E9487018EE00E94870180E80E94870129
:10038000089598B19F7098B998B1282F207F922B2B
:1003900098B9409A4198429AEFEFF7E43197F1F714
:1003A00000C00000429898B19F7098B998B18295AA
:1003B000807F892B88B9409A4198429A8FEF97E4C1
:1003C0000197F1F700C000004298089580E80E946C
:1003D00087010895CF93DF93EC018881882331F062
:1003E00021960E94C10189918823D9F7DF91CF918D
:1003F0000895823079F0833018F48130C9F405C053
:10040000833069F08430A1F40FC0862F81580E9498
:1004100087010895862F81540E9487010895862FB1
:100420008D560E9487010895862F8D520E94870164
:1004300008950F931F93CF93DF938A01E9018823D7
:1004400011F0662319F40E94E60102C00E94F9012E
:10045000C530D10571F4C80160E177E20E94360D24
:10046000CB01C09690933702809336020E94C1015F
:1004700003C0C430D105B9F4C80168EE73E00E942E
:10048000360DCB0170933902609338026AE070E058
:100490000E94360DC09690935502809354020E949C
:1004A000C10181E001C080E0C330D10511F081308D
:1004B000B1F4C80164E670E00E94360DCB01709380
:1004C0003902609338026AE070E00E94360DC096EF
:1004D00090934D0280934C020E94C10181E0C23092
:1004E000D10511F08130B1F42AE030E0C801B90142
:1004F0000E94360DCB017093390260933802B90126
:100500000E94360DC09690934202809341020E9451
:10051000C10181E0C130D10511F0813061F4C80121
:100520006AE070E00E94360DC0969093530280936B
:1005300052020E94C101C630D1051CF085E40E9420
:10054000C101DF91CF911F910F91089581E00E9429
:100550008701089587B1876F87B988B1807888B996
:100560000895ECEBF0E0108280E18093B8001092E7
:10057000B9001092BA0084E08083089594EA9093C1
:10058000BC00ECEBF0E090819923ECF7EFEFFFE893
:100590003197F1F700C0000096EA9093BB0094E811
:1005A0009093BC00ECEBF0E090819923ECF7EFEF37
:1005B000FFE83197F1F700C000006093BB0094E8BA
:1005C0009093BC00ECEBF0E090819923ECF7EFEF17
:1005D000FFE83197F1F700C000008093BB0084E88A
:1005E0008093BC00ECEBF0E080818823ECF78FEF88
:1005F0009FE80197F1F700C0000084E98093BC00F8
:10060000089594EA9093BC00ECEBF0E0908199237C
:10061000ECF796EA9093BB0094E89093BC00ECEB67
:10062000F0E090819923ECF78093BB0084E88093FD
:10063000BC00ECEBF0E080818823ECF784EA809347
:10064000BC00ECEBF0E080818823ECF787EA809334
:10065000BB0084E88093BC00ECEBF0E08081882351
:10066000ECF784E88093BC00ECEBF0E08081882319
:10067000ECF7EBEBF0E08081108294E89093BC0003
:10068000ECEBF0E090819923ECF70895F8940E9448
:10069000AA020E9444010E94AC010E94B102789417
:1006A0000895EF92FF920F931F93CF93DF93C82F7C
:1006B000D62F8A0179015523A4F40E94F90180E024
:1006C00092E00E94EA016D2F6F5FA801112324F4CC
:1006D00044275527401B510B8C2F97010E9419026C
:1006E0000DC00E94F90182E092E00E94EA016D2FA4
:1006F0006F5F8C2FA80197010E941902DF91CF91A3
:100700001F910F91FF90EF90089508950E94460366
:1007100080E06DE20E94BE0288E06DE20E94BE02AF
:100720000895CF92DF92EF92FF920F931F93CF9392
:10073000DF9382E30E94010383E30E94010384E3C9
:100740000E940103082F85E30E940103D82F86E34E
:100750000E940103C82F87E30E940103C82E3D2F8A
:1007600020E0802F90E0822B932B0E9485038C0148
:100770003C2D20E08C2F90E0822B932B0E94850350
:10078000EC01B801882777FD8095982F0E94F00B27
:100790006B017C01BE01882777FD8095982F0E9410
:1007A000F00B9B01AC01C701B6010E94550B0E94E2
:1007B000290B26EE3FE44FE054E40E94D00C0E9447
:1007C000BD0B862F972FDF91CF911F910F91FF9037
:1007D000EF90DF90CF90089594EA9093BC00ECEBFB
:1007E000F0E090819923ECF7EFEFFFE83197F1F714
:1007F00000C0000092ED9093BB0094E89093BC0081
:10080000ECEBF0E090819923ECF7EFEFFFE8319704
:10081000F1F700C000006093BB0094E89093BC0027
:10082000ECEBF0E090819923ECF7EFEFFFE83197E4
:10083000F1F700C000008093BB0084E88093BC0007
:10084000ECEBF0E080818823ECF78FEF9FE80197D5
:10085000F1F700C0000084E98093BC00089594EA99
:100860009093BC00ECEBF0E090819923ECF792EDD3
:100870009093BB0094E89093BC00ECEBF0E0908187
:100880009923ECF78093BB0084E88093BC00ECEBE9
:10089000F0E080818823ECF784EA8093BC00ECEBE5
:1008A000F0E080818823ECF783ED8093BB0084E83F
:1008B0008093BC00ECEBF0E080818823ECF784E8C7
:1008C0008093BC00ECEBF0E080818823ECF7EBEB4D
:1008D000F0E08081108294E89093BC00ECEBF0E0B3
:1008E00090819923ECF708958FE060E20E94EC0379
:1008F00008954F925F926F927F928F929F92AF92E4
:10090000BF92CF92DF92EF92FF920F931F93CF93FC
:10091000DF9300D00F92CDB7DEB729833A834B83A4
:100920005C8380902E0290902F02A0903002B090B5
:100930003102A50194010E94C40AC62ED72EF82EBA
:10094000E92E382F862F9D2DAF2DBE2DBC01CD0158
:100950000C2D1D2D232F3B2FA90198010E94C50AA4
:1009600020E030E040EF51E40E94D00C2B013C012C
:10097000802F912FAF2DBE2DBC01CD0120E030E0A6
:1009800040EF51E40E94D00C20E030E040EF51E411
:100990000E94D00C2AE037ED43E25CE30E94D00CC9
:1009A00020E030E0A9010E94C50A9B01AC01C3010F
:1009B000B2010E94C50A29813A814B815C810E9463
:1009C000C50A2AE037ED43E25CE30E94D00C9B01AC
:1009D000AC01C501B4010E94C50A262F372FF82F9C
:1009E000E92F462F572F682F792F40932E025093CF
:1009F0002F026093300270933102822F932FAF2F1A
:100A0000BE2FBC01CD010F900F900F900F90DF9182
:100A1000CF911F910F91FF90EF90DF90CF90BF90FB
:100A2000AF909F908F907F906F905F904F900895C0
:100A3000CF9388E20E942F04C82F89E20E942F04DE
:100A4000382F20E08C2F90E0822B932B0E9485037F
:100A500064E670E00E944A0D882777FD8095982F04
:100A60000E94F00B462F572F682F792FCB01BA0128
:100A7000CF910895E1ECF0E010821092C00086E082
:100A80008093C2008FE58093C4001092C50088E96E
:100A9000808308951F920F920FB60F920BB60F929C
:100AA00011240F931F932F933F934F935F936F9353
:100AB0007F938F939F93AF93BF93EF93FF93809117
:100AC000C60080934B028733B9F48091560290910F
:100AD0005702A0915802B091590280931E02909340
:100AE0001F02A0932002B093210281E090E0909336
:100AF0001D0280931C02C4C08833B9F48091470260
:100B000090914802A0914902B0914A0280931E023E
:100B100090931F02A0932002B093210282E090E004
:100B200090931D0280931C02ABC08933B9F480916D
:100B3000320290913302A0913402B0913502809339
:100B40001E0290931F02A0932002B093210283E023
:100B500090E090931D0280931C0292C08033B9F400
:100B60008091140290911502A0911602B091170283
:100B700080931E0290931F02A0932002B093210243
:100B800084E090E090931D0280931C0279C081362E
:100B9000A9F480E090E0A8ECB1E480931002909377
:100BA0001102A0931202B093130282E06AE00E9445
:100BB000F90184E092E00E94EA0162C08337E1F427
:100BC00080E090E0DC018093100290931102A093EA
:100BD0001202B09313028093140290931502A09313
:100BE0001602B093170282E068E00E94F90186E0E5
:100BF00092E00E94EA0144C08436A9F480E090E0CB
:100C0000A8ECB1EC8093100290931102A093120211
:100C1000B093130282E06AE00E94F9018AE092E058
:100C20000E94EA012DC08737A9F480E090E0A0E897
:100C3000BFE38093140290931502A0931602B09321
:100C4000170282E068E00E94F9018CE092E00E94C5
:100C5000EA0116C08837A1F480E090E0A0E8BFEB7D
:100C60008093140290931502A0931602B09317027A
:100C700082E068E00E94F9018EE092E00E94EA01C1
:100C800080914B028133C9F460911E0270911F0262
:100C9000809120029091210220E030E040E85FE363
:100CA0000E94C50ADC01CB0180931E0290931F02B3
:100CB000A0932002B093210286C08233C9F46091D0
:100CC0001E0270911F02809120029091210220E06B
:100CD00030E040EA50E40E94C50ADC01CB01809379
:100CE0001E0290931F02A0932002B09321026BC0BA
:100CF0008433C9F460911E0270911F02809120021A
:100D00009091210220E030E040E85FE30E94C40AB5
:100D1000DC01CB0180931E0290931F02A09320025E
:100D2000B093210250C08533C9F460911E027091C6
:100D30001F02809120029091210220E030E040EAE1
:100D400050E40E94C40ADC01CB0180931E02909300
:100D50001F02A0932002B093210235C08333C9F44F
:100D600060911E0270911F028091200290912102D9
:100D70002DEC3CEC4CEC5DE30E94C50ADC01CB01A0
:100D800080931E0290931F02A0932002B093210231
:100D90001AC08633C1F460911E0270911F028091C7
:100DA0002002909121022DEC3CEC4CEC5DE30E9482
:100DB000C40ADC01CB0180931E0290931F02A09312
:100DC0002002B093210280911C0290911D0281307B
:100DD000910511F560911E0270911F028091200211
:100DE00090912102609356027093570280935802AB
:100DF0009093590220E030E040E251E40E94D00C90
:100E00000E94C20B8B019C0181E061E0A80124E0FB
:100E100030E00E94190270C08230910511F5609196
:100E20001E0270911F028091200290912102609316
:100E30004702709348028093490290934A0220E04F
:100E400030E040E251E40E94D00C0E94C20B8B01C2
:100E50009C0181E066E0A80124E030E00E941902D4
:100E60004BC08330910511F560911E0270911F02F5
:100E7000809120029091210260933202709333029C
:100E8000809334029093350220E030E040E251E458
:100E90000E94D00C0E94C20B8B019C0181E06BE090
:100EA000A80124E030E00E94190226C08430910598
:100EB00019F560911E0270911F028091200290919D
:100EC000210260931402709315028093160290938E
:100ED000170220E030E040E251E40E94D00C0E9472
:100EE000BD0B8B019C0182E090E061E070E0A80105
:100EF00023E030E00E945103FF91EF91BF91AF9149
:100F00009F918F917F916F915F914F913F912F9121
:100F10001F910F910F900BBE0F900FBE0F901F905F
:100F20001895AAE0B1E08C91846E8C93EBE0F1E02F
:100F30008081887180838C9188618C9380818861A5
:100F4000808308950E9491070895E1E2F1E0108204
:100F50008FEF8093250191E0909324011092290155
:100F60008093280110922B0180932A0181EA8093BB
:100F70002001109222018DE080830895EBE0F1E0E2
:100F800090819871892B8083089580EA0E94BE0722
:100F9000089584E40E94BE07089584E80E94BE0775
:100FA000089580E60E94BE07089580E80E94BE076B
:100FB000089580E20E94BE07089580E40E94BE0763
:100FC000089584E00E94BE07089580E00E94BE0755
:100FD0000895F8940E94AA020E9444010E94AC0164
:100FE0000E94A2070E94A507789408958F929F926D
:100FF000AF92BF92EF92FF920F931F934B015C0150
:10100000DA01C9018092560290925702A0925802CA
:10101000B09259028093470290934802A0934902EC
:10102000B0934A02E0923202F0923302009334020B
:10103000109335021F910F91FF90EF90BF90AF90EA
:101040009F908F9008958F929F92AF92BF92CF9270
:10105000DF92EF92FF920F931F93CF93C82F1092BE
:10106000290110922B01082F10E08090100290901F
:101070001102A0901202B0901302B801882777FDE8
:101080008095982F0E94F00B6B017C0160E070E06E
:1010900081E693E4A50194010E94C40A9B01AC017E
:1010A000C701B6010E94510B181694F0025E1F4F43
:1010B000B801882777FD8095982F0E94F00B9B013F
:1010C000AC01C501B4010E94C50A0E94C20BC62F23
:1010D000C0932A01C0901002D0901102E090120239
:1010E000F09013026C2F70E080E090E00E94F00B13
:1010F0004B015C01C701B60120E030E04FE753E44B
:101100000E94C50A9B01AC01C501B4010E94C50C37
:1011100018165CF460E070E08FE793E4A701960195
:101120000E94C40A0E94C20BC62FC0932801CF910F
:101130001F910F91FF90EF90DF90CF90BF90AF90F5
:101140009F908F900895CF92DF92EF92FF920F932E
:101150001F93CF93DF9360914E0270914F02809165
:101160005002909151022091140230911502409149
:101170001602509117020E94C40AD62FC72F182FAB
:10118000092F862F9C2FA12FB02F809318029093A8
:101190001902A0931A02B0931B026091470270914A
:1011A00048028091490290914A022AE037ED43E2D9
:1011B0005CE30E94D00C9B01AC018D2F9C2FA12FD2
:1011C000B02FBC01CD010E94D00C2091260230919D
:1011D000270240912802509129020E94C50A062F39
:1011E000172FD82FC92F862F912FAD2FBC2F80936B
:1011F000260290932702A0932802B0932902BC01F3
:10120000CD0120E030E04FE753E40E94C50C882375
:101210006CF080E090E0AFE7B3E480932602909317
:101220002702A0932802B09329021AC0802F912F81
:10123000AD2FBC2FBC01CD0120E030E04FE753ECD7
:101240000E94510B181664F080E090E0AFE7B3EC19
:101250008093260290932702A0932802B09329023C
:1012600081E090E00E941E018A3091054CF1C0900F
:101270001802D0901902E0901A02F0901B02C701E8
:10128000B6012091430230914402409145025091B1
:1012900046020E94C40ADC01CB0180932202909393
:1012A0002302A0932402B0932502C0924302D0925D
:1012B0004402E0924502F09246020E94E5000BC013
:1012C00080E090E0DC018093220290932302A093BF
:1012D0002402B093250260915602709157028091CA
:1012E00058029091590220911802309119024091B0
:1012F0001A0250911B020E94D00C209126023091BC
:10130000270240912802509129020E94C50A6B01D0
:101310007C0160913202709133028091340290918D
:1013200035022DEC3CEC4CEC5DE30E94D00C20919E
:1013300022023091230240912402509125020E9402
:10134000D00C9B01AC01C701B6010E94C50ADC01AB
:10135000CB0180933D0290933E02A0933F02B09355
:101360004002DF91CF911F910F91FF90EF90DF909E
:10137000CF9008950E9486030E9474040E94E9079A
:101380000E943A050E94E5006AE979E981E391E467
:101390002DEC3CEC44E151E40F2EFAE9EF2EF9E993
:1013A000FF2EF9EC0F2FF0E41F2FF02D0E94F6070F
:1013B00060915602709157028091580290915902A3
:1013C00020E030E040E251E40E94D00C0E94C20BC9
:1013D0008B019C0181E061E0A80124E030E00E94E3
:1013E00019026091470270914802809149029091E0
:1013F0004A0220E030E040E251E40E94D00C0E941A
:10140000C20B8B019C0181E066E0A80124E030E082
:101410000E9419026091320270913302809134026D
:101420009091350220E030E040E251E40E94D00C7F
:101430000E94C20B8B019C0181E06BE0A80124E0BB
:1014400030E00E9419020F2EFFEF4F2E5524F02D91
:1014500006EC10E077247A940E949103EC010E943C
:1014600018056B017C01BE01882777FD8095982FB8
:101470000E94F00B2DEC3CEC4CEC5DE30E94D00C98
:10148000A70196010E9479044B015C0160934E0212
:1014900070934F0280935002909351020E94A308D0
:1014A000C0903D02D0903E02E0903F02F09040029A
:1014B000C701B60120E030E0A9010E94C50C181652
:1014C000ACF4C701B60120E030E040EA51E40E94EC
:1014D000C50A0E94C20BDC01CB018F3F910508F0C9
:1014E000C2010E9423080E94C5071DC0C701B601A2
:1014F00020E030E0A9010E94510B8823A4F460E0B1
:1015000070E080EA91E4A70196010E94C40A0E945B
:10151000C20BDC01CB018F3F910508F0C2010E9494
:1015200023080E94C907F801708286E69EE00197B1
:10153000F1F70000C501B40120E030E048EC52E4CE
:101540000E94C50A0E94C20BF801608386E69EE0F5
:101550000197F1F7000060913D0270913E02809189
:101560003F029091400220E030E040E05FE30E94C3
:10157000D00C20E030E04EEF52E40E94C50A0E94F9
:10158000C20BF801608368CF5058BB27AA270ED042
:10159000C2C1B3D130F0B8D120F031F49F3F11F483
:1015A0001EF483C10EF4E095E7FB79C1E92FC4D1A5
:1015B00080F3BA17620773078407950718F071F470
:1015C0009EF5DCC10EF4E0950B2EBA2FA02D0B0179
:1015D000B90190010C01CA01A0011124FF27591B78
:1015E00099F0593F50F4503E68F11A16F040A22F7E
:1015F000232F342F4427585FF3CF469537952795EF
:10160000A795F0405395C9F77EF41F16BA0B620BED
:10161000730B840BBAF09150A1F0FF0FBB1F661F34
:10162000771F881FC2F70EC0BA0F621F731F841F77
:1016300048F4879577956795B795F7959E3F08F09D
:10164000B3CF9395880F08F09927EE0F979587955C
:101650000895DF93DD27B92FBF7740E85FE31616C3
:10166000170648075B0710F4D92F93D19F938F93E8
:101670007F936F93F8D1E4EEF0E01AD14CD12F9123
:101680003F914F915F9198D1DD2349F09058A2EAA4
:101690002AED3FE049EC5FE3D0785D2787DFDF91FB
:1016A0003AC1D9D008F481E008950CD034C12CD1CE
:1016B00040F023D130F021F45F3F19F0F0C0511118
:1016C0005EC1F3C039D198F39923C9F35523B1F31F
:1016D000951B550BBB27AA2762177307840738F0A1
:1016E0009F5F5F4F220F331F441FAA1FA9F333D000
:1016F0000E2E3AF0E0E830D091505040E695001CB4
:10170000CAF729D0FE2F27D0660F771F881FBB1F6F
:10171000261737074807AB07B0E809F0BB0B802D49
:10172000BF01FF2793585F4F2AF09E3F510568F095
:10173000B6C025C15F3FECF3983EDCF38695779504
:101740006795B795F7959F5FC9F7880F911D969597
:10175000879597F90895E1E0660F771F881FBB1FF3
:10176000621773078407BA0720F0621B730B840BA0
:10177000BA0BEE1F88F7E095089504D06894B11174
:10178000FEC00895E1D088F09F5790F0B92F9927B7
:10179000B751A0F0D1F0660F771F881F991F1AF07C
:1017A000BA95C9F712C0B13081F0E8D0B1E0089520
:1017B000E5C0672F782F8827B85F39F0B93FCCF3A1
:1017C000869577956795B395D9F73EF49095809572
:1017D000709561957F4F8F4F9F4F0895E89409C092
:1017E00097FB3EF490958095709561957F4F8F4F54
:1017F0009F4F9923A9F0F92F96E9BB279395F6956A
:10180000879577956795B795F111F8CFFAF4BB0FE7
:1018100011F460FF1BC06F5F7F4F8F4F9F4F16C04B
:10182000882311F096E911C0772321F09EE8872FD5
:10183000762F05C0662371F096E8862F70E060E091
:101840002AF09A95660F771F881FDAF7880F96950A
:10185000879597F90895990F0008550FAA0BE0E8AE
:10186000FEEF16161706E807F907C0F01216130662
:10187000E407F50798F0621B730B840B950B39F4A2
:101880000A2661F0232B242B252B21F408950A2608
:1018900009F4A140A6958FEF811D811D089597F948
:1018A0009F6780E870E060E008959FEF80EC089506
:1018B000DF93CF931F930F93FF92EF92DF927B0101
:1018C0008C01689405C0DA2EEF0176D0FE01E89411
:1018D000A5912591359145915591AEF3EF0166DEC5
:1018E000FE019701A801DA9479F7DF90EF90FF905D
:1018F0000F911F91CF91DF91089500240A9416163D
:10190000170618060906089500240A9412161306ED
:10191000140605060895092E0394000C11F488237B
:1019200052F0BB0F40F4BF2B11F460FF04C06F5F97
:101930007F4F8F4F9F4F089557FD9058440F551F6D
:1019400059F05F3F71F04795880F97FB991F61F041
:101950009F3F79F087950895121613061406551FB8
:10196000F2CF4695F1DF08C0161617061806991F24
:10197000F1CF86957105610508940895E894BB2719
:1019800066277727CB0197F9089565DF08F48FEF75
:1019900008959B01AC0160E070E080E89FE385CE94
:1019A0000BD0B9CFAADF28F0AFDF18F0952309F0EC
:1019B00076CF7BCF1124E3CFBFDFA0F3959FD1F388
:1019C000950F50E0551F629FF001729FBB27F00DED
:1019D000B11D639FAA27F00DB11DAA1F649F662742
:1019E000B00DA11D661F829F2227B00DA11D621F91
:1019F000739FB00DA11D621F839FA00D611D221F4B
:101A0000749F3327A00D611D231F849F600D211D2E
:101A1000822F762F6A2F11249F5750408AF0E1F0D1
:101A200088234AF0EE0FFF1FBB1F661F771F881F1A
:101A300091505040A9F79E3F510570F030CF9FCF95
:101A40005F3FECF3983EDCF3869577956795B79505
:101A5000F795E7959F5FC1F7FE2B880F911D96952F
:101A6000879597F908959B01AC019ACFAA1BBB1BE0
:101A700051E107C0AA1FBB1FA617B70710F0A61B8E
:101A8000B70B881F991F5A95A9F780959095BC01AF
:101A9000CD01089597FB092E07260AD077FD04D0C3
:101AA000E5DF06D000201AF4709561957F4F089508
:101AB000F6F7909581959F4F089597FB092E05267F
:101AC0000ED057FD04D014D00AD0001C38F4509525
:101AD0004095309521953F4F4F4F5F4F0895F6F752
:101AE00090958095709561957F4F8F4F9F4F08958A
:101AF000A1E21A2EAA1BBB1BFD010DC0AA1FBB1F12
:101B0000EE1FFF1FA217B307E407F50720F0A21B83
:101B1000B30BE40BF50B661F771F881F991F1A94F0
:101B200069F760957095809590959B01AC01BD011A
:081B3000CF010895F894FFCFE6
:101B38002D002B0052004F204F004C004600420061
:00000001FF
