:100000000C9489000C94AA000C94AA000C94AA00E9
:100010000C94AA000C94AA000C94AA000C94AA00B8
:100020000C94AA000C94AA000C94AA000C94AA00A8
:100030000C94AA000C94AA000C94AA000C94AA0098
:100040000C94AA000C94AA000C94AA000C94AA0088
:100050000C94AA000C94AA000C94AA000C94AA0078
:100060000C94AA000C94AA000C94AA000C94AA0068
:100070000C94AA000C94AA000C94AA000C94AA0058
:100080000C94AA000C94AA000C94AA000C94AA0048
:100090000C94AA000C94AA000C94AA000C94AA0038
:1000A0000C94AA000C94AA000C94AA000C94AA0028
:1000B0000C94AA000C94CE000C94AA000C94AA00F4
:1000C0000C94AA000C94AA000C94AA000C94AA0008
:1000D0000C94AA000C94AA000C94AA000C94AA00F8
:1000E0000C94AA00084AD73B3BCE016E84BCBFFDEE
:1000F000C12F3D6C74319ABD56833DDA3D00C77FF8
:1001000011BED9E4BB4C3E916BAAAABE0000008090
:100110003F0011241FBECFEFD1E2DEBFCDBF00E014
:100120000CBF12E0A0E0B2E0E2EDFEE000E00BBFA9
:1001300002C007900D92A430B107D9F712E0A4E0F5
:10014000B2E001C01D92A331B107E1F70E94720431
:100150000C9467070C94000010920A02E1EAF0E0A8
:10016000108286EC8093A50087E68093A40010920D
:10017000A9001092A8001092AB001092AA00109251
:10018000AD001092AC001092A7001092A600109241
:10019000A0001092A20081E0808308951F920F9228
:1001A0000FB60F9211248F9380910A028F5F809374
:1001B0000A0286EC8093A50087E68093A4008F91C5
:1001C0000F900FBE0F901F901895F8940E94AC00EE
:1001D00081E080937200789408950F931F93CF93DA
:1001E000DF9310910A02C091A400D091A5000E9453
:1001F000E500CE01A0E0B0E0BC01CD016756764C31
:100200008040904029E939E340E050E00E942A070D
:10021000DA01C901810F911DA11DB11D8C019D0144
:1002200048EE53E0049FC001059F900D149F900D70
:100230001124DF91CF911F910F9108951F93CF93B8
:10024000DF9310910A02C091A400D091A5000E94F2
:10025000E500CE01A0E0B0E0BC01CD016756764CD0
:100260008040904029E939E340E050E00E942A07AD
:10027000812F90E0280F391F822F932FDF91CF918C
:100280001F91089586E69EE00197F1F700004098DF
:10029000419880E388B9429AEFEFF7E43197F1F79C
:1002A00000C000004298E6E6FEE03197F1F700005A
:1002B0004098419888B9429AEFEFF7E43197F1F707
:1002C00000C000004298E6E6FEE03197F1F700003A
:1002D0004098419888B9429A8FEF97E40197F1F7D7
:1002E00000C000004298E6E6FEE03197F1F700001A
:1002F0004098419880E288B9429A8FEF97E401973D
:10030000F1F700C000004298089598B19F7098B925
:1003100098B1282F207F922B98B940984198429A03
:10032000EFEFF7E43197F1F700C00000429898B181
:100330009F7098B998B18295807F892B88B9409831
:100340004198429A8FEF97E40197F1F700C00000BF
:100350004298089586E69EE00197F1F7000088E252
:100360000E94850181E00E94850186E00E9485014E
:100370008EE00E94850180E80E948501089598B171
:100380009F7098B998B1282F207F922B98B9409AE6
:100390004198429AEFEFF7E43197F1F700C000007F
:1003A000429898B19F7098B998B18295807F892BB7
:1003B00088B9409A4198429A8FEF97E40197F1F7F4
:1003C00000C000004298089580E80E9485010895C9
:1003D000CF93DF93EC018881882331F021960E942E
:1003E000BF0189918823D9F7DF91CF910895823099
:1003F00079F0833018F48130C9F405C0833069F096
:100400008430A1F40FC0862F81580E948501089581
:10041000862F81540E9485010895862F8D560E9453
:1004200085010895862F8D520E94850108950F93AE
:100430001F93CF93DF938A01E901882311F066238C
:1004400019F40E94E40102C00E94F701C530D105F1
:1004500071F4C80160E177E20E940307CB01C09606
:1004600090930502809304020E94BF0103C0C43030
:10047000D105B9F4C80168EE73E00E940307CB010F
:1004800070930702609306026AE070E00E9403071F
:10049000C09690931202809311020E94BF0181E0E6
:1004A00001C080E0C330D10511F08130B1F4C80142
:1004B00064E670E00E940307CB017093070260932B
:1004C00006026AE070E00E940307C09690930E0255
:1004D00080930D020E94BF0181E0C230D10511F06E
:1004E0008130B1F42AE030E0C801B9010E9403076D
:1004F000CB017093070260930602B9010E940307C3
:10050000C09690930C0280930B020E94BF0181E081
:10051000C130D10511F0813061F4C8016AE070E0AA
:100520000E940307C0969093100280930F020E94CE
:10053000BF01C630D1051CF085E40E94BF01DF91E8
:10054000CF911F910F91089581E00E948501089538
:1005500087B1876F87B988B1807888B90895ECEB47
:10056000F0E0108280E18093B8001092B900109200
:10057000BA0084E08083089594EA9093BC00ECEB89
:10058000F0E090819923ECF7EFEFFFE83197F1F776
:1005900000C0000096EA9093BB0094E89093BC00E2
:1005A000ECEBF0E090819923ECF7EFEFFFE8319767
:1005B000F1F700C000006093BB0094E89093BC008A
:1005C000ECEBF0E090819923ECF7EFEFFFE8319747
:1005D000F1F700C000008093BB0084E88093BC006A
:1005E000ECEBF0E080818823ECF78FEF9FE8019738
:1005F000F1F700C0000084E98093BC00089594EAFC
:100600009093BC00ECEBF0E090819923ECF796EA34
:100610009093BB0094E89093BC00ECEBF0E09081E9
:100620009923ECF78093BB0084E88093BC00ECEB4B
:10063000F0E080818823ECF784EA8093BC00ECEB47
:10064000F0E080818823ECF787EA8093BB0084E8A0
:100650008093BC00ECEBF0E080818823ECF784E829
:100660008093BC00ECEBF0E080818823ECF7EBEBAF
:10067000F0E08081108294E89093BC00ECEBF0E015
:1006800090819923ECF70895F8940E94A8020E94A3
:1006900042010E94AA010E94AF0278940895EF924D
:1006A000FF920F931F93CF93DF93C82FD62F8A010A
:1006B00079015523A4F40E94F70180E092E00E94A2
:1006C000E8016D2F6F5FA801112324F444275527FB
:1006D000401B510B8C2F97010E9417020DC00E94E6
:1006E000F70182E092E00E94E8016D2F6F5F8C2F8E
:1006F000A80197010E941702DF91CF911F910F91DE
:10070000FF90EF90089508950E94440380E06DE209
:100710000E94BC0288E06DE20E94BC020895CF9264
:10072000DF92EF92FF920F931F93CF93DF9382E3B9
:100730000E94FF0283E30E94FF0284E30E94FF0203
:10074000082F85E30E94FF02D82F86E30E94FF0254
:10075000C82F87E30E94FF02C82E3D2F20E0802F84
:1007600090E0822B932B0E9483038C013C2D20E090
:100770008C2F90E0822B932B0E948303EC01B80115
:10078000882777FD8095982F0E9485056B017C0155
:10079000BE01882777FD8095982F0E9485059B01D3
:1007A000AC01C701B6010E94EA040E94C20423EA18
:1007B0003CE445E652E40E943D060E945205862F25
:1007C000972FDF91CF911F910F91FF90EF90DF90C6
:1007D000CF90089594EA9093BC00ECEBF0E0908108
:1007E0009923ECF7EFEFFFE83197F1F700C0000035
:1007F00092ED9093BB0094E89093BC00ECEBF0E09A
:1008000090819923ECF7EFEFFFE83197F1F700C003
:1008100000006093BB0094E89093BC00ECEBF0E028
:1008200090819923ECF7EFEFFFE83197F1F700C0E3
:1008300000008093BB0084E88093BC00ECEBF0E008
:1008400080818823ECF78FEF9FE80197F1F700C0D4
:10085000000084E98093BC00089594EA9093BC0062
:10086000ECEBF0E090819923ECF792ED9093BB00D4
:1008700094E89093BC00ECEBF0E090819923ECF7C6
:100880008093BB0084E88093BC00ECEBF0E08081B7
:100890008823ECF784EA8093BC00ECEBF0E08081E5
:1008A0008823ECF783ED8093BB0084E88093BC0041
:1008B000ECEBF0E080818823ECF784E88093BC00C7
:1008C000ECEBF0E080818823ECF7EBEBF0E080814B
:1008D000108294E89093BC00ECEBF0E090819923B7
:1008E000ECF708950E9484038FE060E20E94EA031F
:1008F0000E94E50000E010E00F2EF4E6CF2EDD248C
:10090000F02D88E20E942D04C82F89E20E942D0458
:10091000D82F8AE20E942D048BE20E942D048CE2E3
:100920000E942D048DE20E942D04FD2EEE248C2FBA
:1009300090E08E299F290E948303B6010E94170729
:10094000EB0181E090E061E070E0AE0123E030E097
:100950000E944F03C00FD11F82E090E061E070E081
:10096000AE0123E030E00E944F030E948F03AC01F0
:1009700081E090E06AE070E023E030E00E944F0305
:100980008E01BFCFDF93DD27B92FBF7740E85FE34C
:100990001616170648075B0710F4D92F67D19F93E7
:1009A0008F937F936F93CCD1E4EEF0E0F2D024D11B
:1009B0002F913F914F915F916CD1DD2349F0905879
:1009C000A2EA2AED3FE049EC5FE3D0785D27C8D189
:1009D000DF9112C10CD010C108D140F0FFD030F02F
:1009E00021F45F3F19F0CCC051113AC1CFC015D1ED
:1009F00098F39923C9F35523B1F3951B550BBB27E6
:100A0000AA2762177307840738F09F5F5F4F220F92
:100A1000331F441FAA1FA9F333D00E2E3AF0E0E88B
:100A200030D091505040E695001CCAF729D0FE2FD7
:100A300027D0660F771F881FBB1F26173707480769
:100A4000AB07B0E809F0BB0B802DBF01FF2793581F
:100A50005F4F2AF09E3F510568F092C001C15F3F91
:100A6000ECF3983EDCF3869577956795B795F79507
:100A70009F5FC9F7880F911D9695879597F90895FF
:100A8000E1E0660F771F881FBB1F6217730784079B
:100A9000BA0720F0621B730B840BBA0BEE1F88F7AA
:100AA000E095089504D06894B111DAC00895BDD0DE
:100AB00088F09F5790F0B92F9927B751A0F0D1F047
:100AC000660F771F881F991F1AF0BA95C9F712C0D1
:100AD000B13081F0C4D0B1E00895C1C0672F782F44
:100AE0008827B85F39F0B93FCCF38695779567953D
:100AF000B395D9F73EF490958095709561957F4FA9
:100B00008F4F9F4F0895E89409C097FB3EF490954E
:100B10008095709561957F4F8F4F9F4F9923A9F0D6
:100B2000F92F96E9BB279395F69587957795679565
:100B3000B795F111F8CFFAF4BB0F11F460FF1BC0A9
:100B40006F5F7F4F8F4F9F4F16C0882311F096E93C
:100B500011C0772321F09EE8872F762F05C06623EA
:100B600071F096E8862F70E060E02AF09A95660FA3
:100B7000771F881FDAF7880F9695879597F908955C
:100B800097F99F6780E870E060E008959FEF80EC40
:100B90000895DF93CF931F930F93FF92EF92DF920D
:100BA0007B018C01689405C0DA2EEF0172D0FE0142
:100BB000E894A5912591359145915591AEF3EF01BA
:100BC000CFD0FE019701A801DA9479F7DF90EF907A
:100BD000FF900F911F91CF91DF91089500240A9407
:100BE0001616170618060906089500240A94121608
:100BF0001306140605060895092E0394000C11F43B
:100C0000882352F0BB0F40F4BF2B11F460FF04C0E7
:100C10006F5F7F4F8F4F9F4F089557FD9058440F40
:100C2000551F59F05F3F71F04795880F97FB991F4B
:100C300061F09F3F79F08795089512161306140608
:100C4000551FF2CF4695F1DF08C016161706180695
:100C5000991FF1CF86957105610508940895E89470
:100C6000BB2766277727CB0197F908959B01AC0135
:100C700060E070E080E89FE3ADCE0BD0BDCFAEDF8B
:100C800028F0B3DF18F0952309F07ACF7FCF112435
:100C9000E7CFC3DFA0F3959FD1F3950F50E0551F29
:100CA000629FF001729FBB27F00DB11D639FAA27C1
:100CB000F00DB11DAA1F649F6627B00DA11D661F10
:100CC000829F2227B00DA11D621F739FB00DA11D31
:100CD000621F839FA00D611D221F749F3327A00DEB
:100CE000611D231F849F600D211D822F762F6A2F87
:100CF00011249F5750408AF0E1F088234AF0EE0F0C
:100D0000FF1FBB1F661F771F881F91505040A9F718
:100D10009E3F510570F034CFA3CF5F3FECF3983E78
:100D2000DCF3869577956795B795F795E7959F5F7F
:100D3000C1F7FE2B880F911D9695879597F9089519
:100D40009B01AC019ACF4ADF30F04FDF20F031F445
:100D50009F3F11F41EF41ACF0EF4E095E7FB10CF7D
:100D6000E92F5BDF80F3BA176207730784079507E3
:100D700018F071F49EF573CF0EF4E0950B2EBA2F98
:100D8000A02D0B01B90190010C01CA01A001112491
:100D9000FF27591B99F0593F50F4503E68F11A163D
:100DA000F040A22F232F342F4427585FF3CF4695CE
:100DB00037952795A795F0405395C9F77EF41F16F0
:100DC000BA0B620B730B840BBAF09150A1F0FF0FBA
:100DD000BB1F661F771F881FC2F70EC0BA0F621FA6
:100DE000731F841F48F4879577956795B795F79596
:100DF0009E3F08F0B3CF9395880F08F09927EE0F28
:100E0000979587950895AA1BBB1B51E107C0AA1FA0
:100E1000BB1FA617B70710F0A61BB70B881F991F9B
:100E20005A95A9F780959095BC01CD01089597FB3F
:100E3000092E07260AD077FD04D0E5DF06D0002072
:100E40001AF4709561957F4F0895F6F79095819506
:100E50009F4F089597FB092E05260ED057FD04D00D
:100E600014D00AD0001C38F4509540953095219547
:100E70003F4F4F4F5F4F0895F6F7909580957095CF
:100E800061957F4F8F4F9F4F0895A1E21A2EAA1BA5
:100E9000BB1BFD010DC0AA1FBB1FEE1FFF1FA2172A
:100EA000B307E407F50720F0A21BB30BE40BF50B27
:100EB000661F771F881F991F1A9469F760957095B0
:100EC000809590959B01AC01BD01CF010895F894E8
:020ED000FFCF52
:040ED2002D002B00C4
:00000001FF
