:100000000C94B3000C94D4000C94D4000C94D40041
:100010000C94D4000C94D4000C94D4000C94D40010
:100020000C94D4000C94D4000C94D4000C94D40000
:100030000C94D4000C94D4000C94D4000C94D400F0
:100040000C94D4000C94D4000C94D4000C94D400E0
:100050000C94D4000C94D4000C94D4000C94D400D0
:100060000C94D4000C94D4000C94D4000C94D400C0
:100070000C94D4000C94D4000C94D4000C94D400B0
:100080000C94D4000C94D4000C94D4000C94D400A0
:100090000C94D4000C94D4000C94D4000C94D40090
:1000A0000C94D4000C94D4000C94D4000C94D40080
:1000B0000C94D4000C945E020C94D4000C94D400E4
:1000C0000C94D4000C94D4000C94D4000C94D40060
:1000D0000C94D4000C94D4000C94D4000C94D40050
:1000E0000C94D40007634236B79BD8A71A396856D8
:1000F00018AEBAAB558C1D3CB7CC5763BD6DEDFD4A
:10010000753EF6177231BF000000803F0800000006
:10011000BE922449123EABAAAA2ABECDCCCC4C3EFC
:1001200000000080BEABAAAAAA3E00000000BF00EB
:100130000000803F0000000000084178D3BB4387E7
:10014000D1133D190E3CC3BD4282AD2B3E68EC82FB
:1001500076BED98FE1A93E4C80EFFFBE01C4FF7F80
:100160003F000000000011241FBECFEFD1E2DEBF30
:10017000CDBF00E00CBF12E0A0E0B2E0E0E7F0E1AC
:1001800000E00BBF02C007900D92AE30B107D9F767
:1001900012E0AEE0B2E001C01D92AD31B107E1F76F
:1001A0000E9432040C9436080C94000086E69EE00F
:1001B0000197F1F700004098419880E388B9429A8E
:1001C000EFEFF7E43197F1F700C000004298E6E660
:1001D000FEE03197F1F700004098419888B9429AC3
:1001E000EFEFF7E43197F1F700C000004298E6E640
:1001F000FEE03197F1F700004098419888B9429AA3
:100200008FEF97E40197F1F700C000004298E6E60F
:10021000FEE03197F1F700004098419880E288B9FC
:10022000429A8FEF97E40197F1F700C000004298DF
:10023000089598B19F7098B998B1282F207F922B7C
:1002400098B940984198429AEFEFF7E43197F1F767
:1002500000C00000429898B19F7098B998B18295FB
:10026000807F892B88B940984198429A8FEF97E414
:100270000197F1F700C000004298089586E69EE0DD
:100280000197F1F7000088E20E94190181E00E94C5
:10029000190186E00E9419018EE00E94190180E890
:1002A0000E941901089598B19F7098B998B1282FAC
:1002B000207F922B98B9409A4198429AEFEFF7E449
:1002C0003197F1F700C00000429898B19F7098B93B
:1002D00098B18295807F892B88B9409A4198429A3B
:1002E0008FEF97E40197F1F700C00000429808955E
:1002F00080E80E9419010895CF93DF93EC01888173
:10030000882331F021960E94530189918823D9F7DF
:10031000DF91CF910895823079F0833018F48130E5
:10032000C9F405C0833069F08430A1F40FC0862F72
:1003300081580E9419010895862F81540E94190145
:100340000895862F8D560E9419010895862F8D528B
:100350000E94190108950F931F93CF93DF938A0191
:10036000E901882311F0662319F40E94780102C084
:100370000E948B01C530D10571F4C80160E177E2BC
:100380000E94D207CB01C09690930F0280930E0279
:100390000E94530103C0C430D105B9F4C80168EE0E
:1003A00073E00E94D207CB01709311026093100298
:1003B0006AE070E00E94D207C09690931C0280937E
:1003C0001B020E94530181E001C080E0C330D105CF
:1003D00011F08130B1F4C80164E670E00E94D207E8
:1003E000CB0170931102609310026AE070E00E94EA
:1003F000D207C09690931802809317020E9453016F
:1004000081E0C230D10511F08130B1F42AE030E052
:10041000C801B9010E94D207CB0170931102609309
:100420001002B9010E94D207C096909316028093E1
:1004300015020E94530181E0C130D10511F08130D5
:1004400061F4C8016AE070E00E94D207C096909300
:100450001A02809319020E945301C630D1051CF084
:1004600085E40E945301DF91CF911F910F91089570
:1004700081E00E941901089510921402E1EAF0E06F
:10048000108286EC8093A50087E68093A4001092EA
:10049000A9001092A8001092AB001092AA0010922E
:1004A000AD001092AC001092A7001092A60010921E
:1004B000A0001092A20081E0808308951F920F9205
:1004C0000FB60F9211248F93809114028F5F809347
:1004D000140286EC8093A50087E68093A4008F9198
:1004E0000F900FBE0F901F901895F8940E943C0239
:1004F00081E080937200789408950F931F93CF93B7
:10050000DF9310911402C091A400D091A5000E9425
:100510007502CE01A0E0B0E0BC01CD016756764C7B
:100520008040904029E939E340E050E00E94F9071B
:10053000DA01C901810F911DA11DB11D8C019D0121
:1005400048EE53E0049FC001059F900D149F900D4D
:100550001124DF91CF911F910F9108951F93CF9395
:10056000DF9310911402C091A400D091A5000E94C5
:100570007502CE01A0E0B0E0BC01CD016756764C1B
:100580008040904029E939E340E050E00E94F907BB
:10059000812F90E0280F391F822F932FDF91CF9169
:1005A0001F91089587B1876F87B988B1807888B91E
:1005B0000895ECEBF0E0108280E18093B800109297
:1005C000B9001092BA0084E08083089594EA909371
:1005D000BC00ECEBF0E090819923ECF7EFEFFFE843
:1005E0003197F1F700C0000092ED9093BB0094E8C2
:1005F0009093BC00ECEBF0E090819923ECF7EFEFE7
:10060000FFE83197F1F700C000006093BB0094E869
:100610009093BC00ECEBF0E090819923ECF7EFEFC6
:10062000FFE83197F1F700C000008093BB0084E839
:100630008093BC00ECEBF0E080818823ECF78FEF37
:100640009FE80197F1F700C0000084E98093BC00A7
:10065000089594EA9093BC00ECEBF0E0908199232C
:10066000ECF792ED9093BB0094E89093BC00ECEB18
:10067000F0E090819923ECF78093BB0084E88093AD
:10068000BC00ECEBF0E080818823ECF784EA8093F7
:10069000BC00ECEBF0E080818823ECF783ED8093E5
:1006A000BB0084E88093BC00ECEBF0E08081882301
:1006B000ECF784E88093BC00ECEBF0E080818823C9
:1006C000ECF7EBEBF0E08081108294E89093BC00B3
:1006D000ECEBF0E090819923ECF7089581E061E084
:1006E0000E948B0180E092E00E947C010895F894C2
:1006F0000E94D2020E94D902789408952F923F92CC
:100700004F925F926F927F928F929F92AF92BF9221
:10071000CF92DF92EF92FF920F931F93CF93DF93CD
:100720002C01009709F452C08824992400E010E0BD
:100730000F2EFAE02F2E3324F02DC201B1010E94BA
:10074000E6072B013C01B401882777FD8095982F9F
:100750000E9416059B01AC0160E070E080E090E42F
:100760000E940506C62FD72FB82EA92EB8018827BC
:1007700077FD8095982F0E9416056B017C01B301CF
:10078000882777FD8095982F0E9416050C2F1D2F26
:100790002B2D3A2DA90198010E94A2059B01AC01C5
:1007A000C701B6010E947F04462F572F682F792F6B
:1007B000CB01BA010E94E3048B019C010894811CC7
:1007C000911C4114510409F0B8CF02C000E010E0C0
:1007D000802F912FDF91CF911F910F91FF90EF907C
:1007E000DF90CF90BF90AF909F908F907F906F9051
:1007F0005F904F903F902F9008950895EF92FF9251
:100800000F931F93CF93DF93C82FD62F8A017901BF
:100810005523A4F40E948B0189E092E00E947C01A0
:100820006D2F6F5FA801112324F444275527401B27
:10083000510B8C2F97010E94AB010DC00E948B01C0
:100840008BE092E00E947C016D2F6F5F8C2FA801DE
:1008500097010E94AB01DF91CF911F910F91FF9003
:10086000EF9008950E9477030E94D6000E943E01F7
:100870000E9438028FE060E20E94E6020E94750248
:10088000EE24FF2488E20E942903C82F89E20E94F7
:100890002903082F8AE20E9429038BE20E94290380
:1008A0008CE20E9429038DE20E942903D02ECC24E1
:1008B0008C2F90E08C299D290E94FD03EC010E9461
:1008C000AE028C9F80018D9F100D9C9F100D1124F6
:1008D000A701400F511F81E090E061E070E023E04C
:1008E00030E00E94FE038FEF9FE7A4E0815090402C
:1008F000A040E1F700C000007801C4CF5058BB27EA
:10090000AA270ED0E5C0D6D030F0DBD020F031F4ED
:100910009F3F11F41EF4CBC00EF4E095E7FBC1C07D
:10092000E92FE7D080F3BA176207730784079507AA
:1009300018F071F49EF5FFC00EF4E0950B2EBA2F5F
:10094000A02D0B01B90190010C01CA01A0011124D5
:10095000FF27591B99F0593F50F4503E68F11A1681
:10096000F040A22F232F342F4427585FF3CF469512
:1009700037952795A795F0405395C9F77EF41F1634
:10098000BA0B620B730B840BBAF09150A1F0FF0FFE
:10099000BB1F661F771F881FC2F70EC0BA0F621FEA
:1009A000731F841F48F4879577956795B795F795DA
:1009B0009E3F08F0B3CF9395880F08F09927EE0F6C
:1009C00097958795089504D06894B111B5C008959E
:1009D00098D088F09F5790F0B92F9927B751A0F081
:1009E000D1F0660F771F881F991F1AF0BA95C9F7C3
:1009F00012C0B13081F09FD0B1E008959CC0672F44
:100A0000782F8827B85F39F0B93FCCF38695779572
:100A10006795B395D9F73EF490958095709561955B
:100A20007F4F8F4F9F4F0895E89409C097FB3EF486
:100A300090958095709561957F4F8F4F9F4F99232B
:100A4000A9F0F92F96E9BB279395F69587957795A9
:100A50006795B795F111F8CFFAF4BB0F11F460FF69
:100A60001BC06F5F7F4F8F4F9F4F16C0882311F0C1
:100A700096E911C0772321F09EE8872F762F05C0D5
:100A8000662371F096E8862F70E060E02AF09A9570
:100A9000660F771F881FDAF7880F9695879597F965
:100AA000089597F99F6780E870E060E008959FEFF0
:100AB00080EC089500240A941616170618060906F5
:100AC000089500240A9412161306140605060895C4
:100AD000092E0394000C11F4882352F0BB0F40F44C
:100AE000BF2B11F460FF04C06F5F7F4F8F4F9F4F8C
:100AF000089557FD9058440F551F59F05F3F71F00E
:100B00004795880F97FB991F61F09F3F79F0879574
:100B10000895121613061406551FF2CF4695F1DFFD
:100B200008C0161617061806991FF1CF869571058D
:100B3000610508940895E894BB2766277727CB01C1
:100B400097F908950BD0C4CFB5DF28F0BADF18F0BD
:100B5000952309F0A6CFABCF1124EECFCADFA0F3C7
:100B6000959FD1F3950F50E0551F629FF001729F42
:100B7000BB27F00DB11D639FAA27F00DB11DAA1F61
:100B8000649F6627B00DA11D661F829F2227B00DAE
:100B9000A11D621F739FB00DA11D621F839FA00D39
:100BA000611D221F749F3327A00D611D231F849F89
:100BB000600D211D822F762F6A2F11249F575040E0
:100BC0008AF0E1F088234AF0EE0FFF1FBB1F661F7B
:100BD000771F881F91505040A9F79E3F510570F034
:100BE00060CFAACF5F3FECF3983EDCF38695779514
:100BF0006795B795F795E7959F5FC1F7FE2B880F2F
:100C0000911D9695879597F90895FA01EE0FFF1FAC
:100C100030962105310599F16115710561F480382F
:100C2000BFE39B0749F168949038810561F08038F3
:100C3000BFEF9B0741F0992342F5FF3FE1053105E6
:100C4000210511F1E8940894E795D901AA2329F424
:100C5000AB2FBE2FF85FD0F310C0FF5F70F4A695E6
:100C6000E0F7F73950F019F0FF3A38F49F779F9387
:100C70000CD00F9007FC905808953EF018CF60E01C
:100C800070E080E89FE308954FE79F775F934F936D
:100C90003F932F939ED02F913F914F915F9152DFC1
:100CA00005C019F40EF0FDCE46CF01CF2ADFC8F300
:100CB0009638C0F707F80F92E8942BE33AEA48EB2E
:100CC0005FE74EDF0F920F920F924DB75EB70F9214
:100CD000C0D0E4EEF0E016D04F915F91EF91FF911C
:100CE000E595EE1FFF1F49F0FE57E0684427EE0F21
:100CF000441FFA95E1F74195550B32D00F9007FE4E
:100D000026C00895DF93CF931F930F93FF92EF9226
:100D1000DF927B018C01689405C0DA2EEF011EDFA3
:100D2000FE01E894A5912591359145915591AEF339
:100D3000EF01F6DDFE019701A801DA9479F7DF9063
:100D4000EF90FF900F911F91CF91DF9108959B013C
:100D5000AC0160E070E080E89FE3AEC0A2CE14C1B9
:100D6000D0DEE8F39923D9F3940F511DBBF39150D2
:100D7000504094F059F0882332F0660F771F881F97
:100D800091505040C1F79E3F510544F7880F911D87
:100D90009695879597F908955F3FACF0983E9CF043
:100DA000BB27869577956795B79508F4B1609395BD
:100DB000C1F7BB0F58F711F460FFE8CF6F5F7F4FAB
:100DC0008F4F9F4FE3CFB8CE0EF0DEC070CE689449
:100DD00068CE97DEC8F39923D1F3C6F3DF93CF93A0
:100DE0001F930F93FF92C92FDD2788232AF02197A5
:100DF000660F771F881FDAF720E030E040E85FEBEE
:100E00009FE3883920F0803E30F021968F7777DDA0
:100E1000ECE0F1E003C073DDE9E3F1E073DF8B01A7
:100E2000BE01EC01FB2E6F5771097595771F880B7A
:100E3000990BFCDD28E132E741E35FE38FDEAF2D64
:100E40009801AE01FF900F911F91CF91DF9168DD66
:100E50003FCEFA01DC01AA0FBB1F9B01AC01BF57BB
:100E600028F422273327442750781FC0B75188F42D
:100E7000AB2F0024469537952795011CA395D2F3F7
:100E8000002069F0220F331F441FB395DAF30DD011
:100E900035CD61307105A0E88A07B94630F49B0171
:100EA000AC016627772788279078309621F0208339
:100EB00031834283538308950CD00ACE02DE40F082
:100EC000F9DD30F021F45F3F19F0EBCD511134CE54
:100ED000EECD0FDE98F39923C9F35523B1F3951B9B
:100EE000550BBB27AA2762177307840738F09F5F4B
:100EF0005F4F220F331F441FAA1FA9F333D00E2EBA
:100F00003AF0E0E830D091505040E695001CCAF726
:100F100029D0FE2F27D0660F771F881FBB1F2617EB
:100F200037074807AB07B0E809F0BB0B802DBF01BE
:100F3000FF2793585F4F2AF09E3F510568F0B1CDCF
:100F4000FBCD5F3FECF3983EDCF386957795679594
:100F5000B795F7959F5FC9F7880F911D969587956F
:100F600097F90895E1E0660F771F881FBB1F62178E
:100F700073078407BA0720F0621B730B840BBA0B4C
:100F8000EE1F88F7E09508959F3F31F0915020F4CF
:100F9000879577956795B795880F911D9695879555
:100FA00097F90895AA1BBB1B51E107C0AA1FBB1FDD
:100FB000A617B70710F0A61BB70B881F991F5A95E5
:100FC000A9F780959095BC01CD01089597FB092E56
:100FD00007260AD077FD04D0E5DF06D000201AF4FA
:100FE000709561957F4F0895F6F7909581959F4F85
:100FF000089597FB092E05260ED057FD04D014D076
:101000000AD0001C38F450954095309521953F4FFB
:101010004F4F5F4F0895F6F79095809570956195C5
:101020007F4F8F4F9F4F0895A1E21A2EAA1BBB1B23
:10103000FD010DC0AA1FBB1FEE1FFF1FA217B307A4
:10104000E407F50720F0A21BB30BE40BF50B661FBA
:10105000771F881F991F1A9469F76095709580957E
:1010600090959B01AC01BD01CF010895F894FFCF8D
:0E10700020203A20203A2020002D002B0000E6
:00000001FF
