:100000000C9472000C9493000C9493000C94930045
:100010000C9493000C9493000C9493000C94930014
:100020000C9493000C9493000C9493000C94930004
:100030000C9493000C9493000C9493000C949300F4
:100040000C9493000C9493000C9493000C949300E4
:100050000C9493000C9493000C9493000C949300D4
:100060000C9493000C9493000C9493000C949300C4
:100070000C9493000C9493000C9493000C949300B4
:100080000C9493000C9493000C9493000C949300A4
:100090000C9493000C9493000C9493000C94930094
:1000A0000C9493000C9493000C9493000C94930084
:1000B0000C9493000C9493000C9493000C94930074
:1000C0000C9493000C9493000C9493000C94930064
:1000D0000C9493000C9493000C9493000C94930054
:1000E0000C94930011241FBECFEFD1E2DEBFCDBF31
:1000F00000E00CBF12E0A0E0B2E0ECE0F8E000E0CD
:100100000BBF02C007900D92A030B107D9F712E0E3
:10011000A0E0B2E001C01D92AB32B107E1F70E944E
:10012000F8020C9404040C94000089EF90E001970D
:10013000F1F700C000004098419880E388B9429AE6
:10014000E1EEF4E03197F1F700C000004298E9EFEA
:10015000F0E03197F1F700C000004098419888B96D
:10016000429AE1EEF4E03197F1F700C000004298C6
:10017000E9EFF0E03197F1F700C0000040984198B6
:1001800088B9429A81EE94E00197F1F700C000002F
:100190004298E9EFF0E03197F1F700C00000409895
:1001A000419880E288B9429A81EE94E00197F1F794
:1001B00000C000004298089598B19F7098B998B116
:1001C000282F207F922B98B940984198429AE1EECF
:1001D000F4E03197F1F700C00000429898B19F70A9
:1001E00098B998B18295807F892B88B940984198B9
:1001F000429A81EE94E00197F1F700C00000429826
:10020000089589EF90E00197F1F700C0000088E2BF
:100210000E94DC0081E00E94DC0086E00E94DC009D
:100220008EE00E94DC0080E80E94DC00089598B116
:100230009F7098B998B1282F207F922B98B9409A37
:100240004198429AE1EEF4E03197F1F700C00000E6
:10025000429898B19F7098B998B18295807F892B08
:1002600088B9409A4198429A81EE94E00197F1F75B
:1002700000C000004298089580E80E94DC000895C4
:10028000CF93DF93EC018881882331F021960E947F
:10029000170189918823D9F7DF91CF910895823092
:1002A00079F0833018F48130C9F405C0833069F0E7
:1002B0008430A1F40FC0862F81580E94DC0008957D
:1002C000862F81540E94DC000895862F8D560E944F
:1002D000DC000895862F8D520E94DC0008950F9354
:1002E0001F93CF93DF938A01E901882311F06623DE
:1002F00019F40E943C0102C00E944F01C530D10593
:1003000071F4C80160E177E20E94F003CB01C0966E
:1003100090930F0280930E020E94170103C0C43015
:10032000D105B9F4C80168EE73E00E94F003CB0177
:1003300070931302609312026AE070E00E94F0036F
:10034000C09690932802809327020E94170181E0B3
:1003500001C080E0C330D10511F08130B1F4C80193
:1003600064E670E00E94F003CB0170931302609387
:1003700012026AE070E00E94F003C096909322029D
:10038000809321020E94170181E0C230D10511F053
:100390008130B1F42AE030E0C801B9010E94F003D5
:1003A000CB017093130260931202B9010E94F00313
:1003B000C09690931A02809319020E94170181E05F
:1003C000C130D10511F0813061F4C8016AE070E0FC
:1003D0000E94F003C09690932602809325020E940B
:1003E0001701C630D1051CF085E40E941701DF918A
:1003F000CF911F910F91089587B1876F87B988B109
:10040000807888B9089510BA11BA10920701109235
:100410000801089581B18F6081B982B1807F82B96E
:10042000EAE0F1E0808188618083EBE0F1E08081A7
:100430008861808308950E94FC010E9403020E944B
:100440000A020895E1E2F1E010828FEF8093250126
:1004500091E0909324011092290180932801109239
:100460002B0180932A0110922D0180932C0189EA9F
:10047000809320018BE080830895EAE7F0E010820A
:1004800010927B0080E280937C0080E880BF86E849
:1004900080830895883018F098E090937B008770EF
:1004A000806280937C00EAE7F0E080818064808352
:1004B000808184FFFDCF80917900EAE7F0E09081B0
:1004C0009061908310927B000895CF93DF93D82F93
:1004D000C62F842F0E944A02482F809314028D2F2A
:1004E0006C2F50E023E030E00E946F014091140235
:1004F0008D2F8F5F6C2F50E023E030E00E946F0162
:10050000DF91CF9108958093280160932A01089587
:1005100092B1907F8F70982B92B9089586E00E94D7
:100520008802089580E00E9488020895F8940E944D
:100530001B020E943D020E94220278940895AC01A1
:100540004750504050931802409317028091000288
:1005500090910102BA01681B790B70930B026093B2
:100560000A028091290290912A02840F951F90938C
:100570002A028093290250930102409300022091A5
:100580000C0230910D02829FF001839FF00D929F2B
:10059000F00D112480911F0290912002689F90011C
:1005A000699F300D789F300D1124BF01620F731FBA
:1005B0008091230290912402489F9001499F300D21
:1005C000589F300D1124260F371FB90180E090E0AD
:1005D0000E948A0360931B0270931C0280931D0289
:1005E00090931E020E945903862F972F0895089515
:1005F0000E9496020E9495000E94010183E00E94E1
:100600004A028093040282E00E944A02809303021D
:1006100081E00E944A02809302021092050281E06A
:1006200065E042E00E94650280910302883248F44E
:1006300081E0809305020E948E0286E966E90E94AD
:10064000830280910402893268F080910502882338
:1006500049F481E0809305020E948E0282E862E301
:100660000E94830280910202893268F08091050223
:10067000882349F481E0809305020E948E0282E380
:1006800062E80E94830280910302893208F4B6CFA7
:1006900080910402893208F4B1CF8091020289323C
:1006A00008F4ACCF0E948E0280E060E00E948302DA
:1006B000A5CF04D06894B1118DC0089570D088F092
:1006C0009F5790F0B92F9927B751A0F0D1F0660F3E
:1006D000771F881F991F1AF0BA95C9F712C0B13059
:1006E00081F077D0B1E0089574C0672F782F882704
:1006F000B85F39F0B93FCCF3869577956795B39598
:10070000D9F73EF490958095709561957F4F8F4F06
:100710009F4F0895E89409C097FB3EF4909580950B
:10072000709561957F4F8F4F9F4F9923A9F0F92FB7
:1007300096E9BB279395F695879577956795B79535
:10074000F111F8CFFAF4BB0F11F460FF1BC06F5F1B
:100750007F4F8F4F9F4F16C0882311F096E911C02D
:10076000772321F09EE8872F762F05C0662371F04E
:1007700096E8862F70E060E02AF09A95660F771F62
:10078000881FDAF7880F9695879597F9089557FD92
:100790009058440F551F59F05F3F71F04795880FEF
:1007A00097FB991F61F09F3F79F087950895121686
:1007B00013061406551FF2CF4695F1DF08C0161632
:1007C00017061806991FF1CF8695710561050894E3
:1007D0000895E894BB2766277727CB0197F90895FA
:1007E000AA1BBB1B51E107C0AA1FBB1FA617B70757
:1007F00010F0A61BB70B881F991F5A95A9F7809573
:0C0800009095BC01CD010895F894FFCF45
:00000001FF
