:100000000C9472000C9493000C9493000C94930045
:100010000C9493000C9493000C9493000C94930014
:100020000C9493000C9493000C9493000C94930004
:100030000C9493000C9493000C9493000C949300F4
:100040000C9493000C9493000C9493000C949300E4
:100050000C9493000C9493000C9493000C949300D4
:100060000C9493000C9493000C9493000C949300C4
:100070000C9493000C9493000C9493000C949300B4
:100080000C9493000C9493000C9493000C949300A4
:100090000C9493000C9493000C9493000C94930094
:1000A0000C9493000C9493000C9493000C94930084
:1000B0000C9493000C9493000C9493000C94930074
:1000C0000C9493000C9493000C9493000C94930064
:1000D0000C9493000C9493000C9493000C94930054
:1000E0000C94930011241FBECFEFD1E2DEBFCDBF31
:1000F00000E00CBF12E0A0E0B2E0ECE2F7E000E0CC
:100100000BBF02C007900D92A030B107D9F722E0D3
:10011000A0E0B2E001C01D92AE30B207E1F70E944C
:1001200029030C9494030C94000086E69EE001974A
:10013000F1F700004098419880E388B9429A8FEF28
:1001400097E40197F1F700C00000429886E69EE030
:100150000197F1F700004098419880E388B9429AEE
:100160008FEF97E40197F1F700C00000429886E610
:100170009EE00197F1F700004098419880E388B92C
:10018000429A8FEF97E40197F1F700C00000429880
:1001900086E69EE00197F1F700004098419880E2E2
:1001A00088B9429A8FEF97E40197F1F700C00000F9
:1001B0004298089598B19F7098B998B1282F207FE0
:1001C000922B98B940984198429AEFEFF7E4319713
:1001D000F1F700C00000429898B19F7098B998B1AB
:1001E0008295807F892B88B940984198429A8FEFF9
:1001F00097E40197F1F700C000004298089586E661
:100200009EE00197F1F7000088E20E94DA0081E0A9
:100210000E94DA0086E00E94DA008EE00E94DA0096
:1002200080E80E94DA00089598B19F7098B998B15B
:10023000282F207F922B98B9409A4198429AEFEF4D
:10024000F7E43197F1F700C00000429898B19F7031
:1002500098B998B18295807F892B88B9409A419846
:10026000429A8FEF97E40197F1F700C0000042989F
:10027000089580E80E94DA000895823071F018F441
:10028000813031F00895833069F0843081F0089531
:100290008FE7860F0E94DA0008958FEB860F0E9489
:1002A000DA00089583E9860F0E94DA00089583ED4D
:1002B000860F0E94DA0008950F931F93CF93DF9368
:1002C0008A01E901882311F0611103C00E943901FC
:1002D00002C00E943D01C530D10509F0DBC0980184
:1002E000329522952F7023273F702327A7E4B3E090
:1002F0000E948503969587959695879596958795FF
:10030000C09690930102809300020E94140198010C
:10031000369527953695279536952795A5ECB0E225
:100320000E948503AC01529542954F7045275F703E
:10033000452750930302409302029A01ADECBCECB6
:100340000E948503969587959695879596958795AE
:100350009C01220F331F880F991F880F991F880F48
:10036000991F820F931F481B590BCA01C096909387
:100370000D0280930C020E94140104C0C330D10509
:1003800009F08DC098013695279536952795ABE7EE
:10039000B4E10E948503AC01569547955093030242
:1003A000409302029A01ADECBCEC0E948503969545
:1003B000879596958795969587959C01220F331F73
:1003C000880F991F880F991F880F991F820F931FFD
:1003D000481B590BCA01C0969093090280930802EA
:1003E0000E9414019801ADECBCEC0E948503AC01A5
:1003F00056954795569547955695479550930302C0
:10040000409302029A010E948503969587959695DE
:100410008795969587959C01220F331F880F991F0A
:10042000880F991F880F991F820F931F481B590B24
:10043000CA01C09690930702809306020E9414019D
:1004400003C0C130D10501F59801ADECBCEC0E94B0
:1004500085039695879596958795969587959C01A2
:10046000220F331F880F991F880F991F880F991F1C
:10047000820F931F081B190BC801C09690930B02A3
:1004800080930A020E94140126976CF085E40E9472
:10049000140109C0C430D10509F070CF38CFC23083
:1004A000D10579F69FCFDF91CF911F910F910895DC
:1004B00081E00E94DA00089587B1876F87B988B11B
:1004C000807888B90895ECEBF0E0108280E18093A9
:1004D000B8001092B9001092BA0084E080830895A9
:1004E00094EA9093BC00ECEBF0E090819923ECF758
:1004F000EFEFFFE83197F1F700C0000096EA909324
:10050000BB0094E89093BC00ECEBF0E09081992361
:10051000ECF7EFEFFFE83197F1F700C000006093D0
:10052000BB0094E89093BC00ECEBF0E09081992341
:10053000ECF7EFEFFFE83197F1F700C00000809390
:10054000BB0084E88093BC00ECEBF0E08081882362
:10055000ECF78FEF9FE80197F1F700C0000084E906
:100560008093BC00089594EA9093BC00ECEBF0E01B
:1005700090819923ECF7EFEFFFE83197F1F700C096
:10058000000096EA9093BB0094E89093BC00ECEBDB
:10059000F0E090819923ECF7EFEFFFE83197F1F766
:1005A00000C000008093BB0084E88093BC00ECEBAB
:1005B000F0E080818823ECF78FEF9FE80197F1F757
:1005C00000C0000084EA8093BC00ECEBF0E0808186
:1005D0008823ECF7EFEFFFE83197F1F700C0000058
:1005E00087EA8093BB0084E88093BC00ECEBF0E0EA
:1005F00080818823ECF78FEF9FE80197F1F700C027
:10060000000084E88093BC00ECEBF0E0808188235C
:10061000ECF78091BB00EFEFFFE83197F1F700C0F6
:1006200000001092BB0094E89093BC00ECEBF0E06B
:1006300090819923ECF7EFEFFFE83197F1F700C0D5
:1006400000000895F8940E945C020E94630278946E
:1006500008950E9422030E9495000E94FF000E94BC
:1006600058026DE280E00E9470026DE288E00E9414
:10067000700282E30E94B302482F50E023E030E092
:1006800061E081E00E945C0183E30E94B302482F95
:1006900050E023E030E061E082E00E945C0184E30E
:1006A0000E94B302482F50E023E030E066E081E092
:1006B0000E945C0185E30E94B302482F50E023E0D2
:1006C00030E066E082E00E945C0186E30E94B302B3
:1006D000482F50E023E030E06AE081E00E945C01B6
:1006E00087E30E94B302482F50E023E030E06AE045
:1006F00082E00E945C012FEF8FE794E02150804060
:100700009040E1F700C00000ACCFA29FB001B39FC2
:10071000C001A39F700D811D1124911DB29F700D0A
:0C072000811D1124911D0895F894FFCF55
:00000001FF
