:100000000C9489000C94AA000C94AA000C94AA00E9
:100010000C94AA000C94AA000C94AA000C94AA00B8
:100020000C94AA000C94AA000C94AA000C94AA00A8
:100030000C94AA000C94AA000C94AA000C94AA0098
:100040000C94AA000C94AA000C94AA000C94AA0088
:100050000C94AA000C94AA000C94AA000C94AA0078
:100060000C94AA000C9449060C94AA000C94AA00C3
:100070000C94AA000C94AA000C94AA000C94AA0058
:100080000C94AA000C94AA000C94AA000C94AA0048
:100090000C94AA000C94AA000C94AA000C94AA0038
:1000A0000C94AA000C94AA000C94AA000C94AA0028
:1000B0000C94AA000C94CE000C94AA000C94AA00F4
:1000C0000C94AA000C94AA000C94AA000C94AA0008
:1000D0000C94AA000C94AA000C94AA000C94AA00F8
:1000E0000C94AA00084AD73B3BCE016E84BCBFFDEE
:1000F000C12F3D6C74319ABD56833DDA3D00C77FF8
:1001000011BED9E4BB4C3E916BAAAABE0000008090
:100110003F0011241FBECFEFD1E2DEBFCDBF00E014
:100120000CBF12E0A0E0B2E0ECEEF8E100E00BBFA3
:1001300002C007900D92A430B107D9F712E0A4E0F5
:10014000B2E001C01D92A634B107E1F70E94780821
:100150000C94740C0C94000010922802E1EAF0E078
:10016000108286EC8093A50087E68093A40010920D
:10017000A9001092A8001092AB001092AA00109251
:10018000AD001092AC001092A7001092A600109241
:10019000A0001092A20081E0808308951F920F9228
:1001A0000FB60F9211248F93809128028F5F809356
:1001B000280286EC8093A50087E68093A4008F91A7
:1001C0000F900FBE0F901F901895F8940E94AC00EE
:1001D00081E080937200789408950F931F93CF93DA
:1001E000DF9310912802C091A400D091A5000E9435
:1001F000E500CE01A0E0B0E0BC01CD016756764C31
:100200008040904029E939E340E050E00E94370CFB
:10021000DA01C901810F911DA11DB11D8C019D0144
:1002200048EE53E0049FC001059F900D149F900D70
:100230001124DF91CF911F910F9108950F931F9378
:10024000CF93DF938C01C09128026091A40070913C
:10025000A50080E090E06756764C8040904029E908
:1002600039E340E050E00E94370CD0E0C20FD31FCA
:100270000115110511F40E94E5008C2F9D2FDF91CF
:10028000CF911F910F91089586E69EE00197F1F7B7
:1002900000004098419880E388B9429AEFEFF7E474
:1002A0003197F1F700C000004298E6E6FEE0319792
:1002B000F1F700004098419888B9429AEFEFF7E4CF
:1002C0003197F1F700C000004298E6E6FEE0319772
:1002D000F1F700004098419888B9429A8FEF97E46F
:1002E0000197F1F700C000004298E6E6FEE0319782
:1002F000F1F700004098419880E288B9429A8FEF68
:1003000097E40197F1F700C000004298089598B172
:100310009F7098B998B1282F207F922B98B9409858
:100320004198429AEFEFF7E43197F1F700C00000EF
:10033000429898B19F7098B998B18295807F892B27
:1003400088B940984198429A8FEF97E40197F1F766
:1003500000C000004298089586E69EE00197F1F7FC
:10036000000088E20E94870181E00E94870186E008
:100370000E9487018EE00E94870180E80E94870129
:10038000089598B19F7098B998B1282F207F922B2B
:1003900098B9409A4198429AEFEFF7E43197F1F714
:1003A00000C00000429898B19F7098B998B18295AA
:1003B000807F892B88B9409A4198429A8FEF97E4C1
:1003C0000197F1F700C000004298089580E80E946C
:1003D00087010895CF93DF93EC018881882331F062
:1003E00021960E94C10189918823D9F7DF91CF918D
:1003F0000895823079F0833018F48130C9F405C053
:10040000833069F08430A1F40FC0862F81580E9498
:1004100087010895862F81540E9487010895862FB1
:100420008D560E9487010895862F8D520E94870164
:1004300008950F931F93CF93DF938A01E9018823D7
:1004400011F0662319F40E94E60102C00E94F9012E
:10045000C530D10571F4C80160E177E20E94100C4B
:10046000CB01C09690932302809322020E94C10187
:1004700003C0C430D105B9F4C80168EE73E00E942E
:10048000100CCB0170932502609324026AE070E0A7
:100490000E94100CC09690934102809340020E94EB
:1004A000C10181E001C080E0C330D10511F081308D
:1004B000B1F4C80164E670E00E94100CCB017093A7
:1004C0002502609324026AE070E00E94100CC0963E
:1004D00090933902809338020E94C10181E0C230BA
:1004E000D10511F08130B1F42AE030E0C801B90142
:1004F0000E94100CCB017093250260932402B90175
:100500000E94100CC09690932E0280932D020E94A0
:10051000C10181E0C130D10511F0813061F4C80121
:100520006AE070E00E94100CC09690933F028093A6
:100530003E020E94C101C630D1051CF085E40E9434
:10054000C101DF91CF911F910F91089581E00E9429
:100550008701089587B1876F87B988B1807888B996
:100560000895ECEBF0E0108280E18093B8001092E7
:10057000B9001092BA0084E08083089594EA9093C1
:10058000BC00ECEBF0E090819923ECF7EFEFFFE893
:100590003197F1F700C0000096EA9093BB0094E811
:1005A0009093BC00ECEBF0E090819923ECF7EFEF37
:1005B000FFE83197F1F700C000006093BB0094E8BA
:1005C0009093BC00ECEBF0E090819923ECF7EFEF17
:1005D000FFE83197F1F700C000008093BB0084E88A
:1005E0008093BC00ECEBF0E080818823ECF78FEF88
:1005F0009FE80197F1F700C0000084E98093BC00F8
:10060000089594EA9093BC00ECEBF0E0908199237C
:10061000ECF796EA9093BB0094E89093BC00ECEB67
:10062000F0E090819923ECF78093BB0084E88093FD
:10063000BC00ECEBF0E080818823ECF784EA809347
:10064000BC00ECEBF0E080818823ECF787EA809334
:10065000BB0084E88093BC00ECEBF0E08081882351
:10066000ECF784E88093BC00ECEBF0E08081882319
:10067000ECF7EBEBF0E08081108294E89093BC0003
:10068000ECEBF0E090819923ECF70895F8940E9448
:10069000AA020E9444010E94AC010E94B102789417
:1006A0000895EF92FF920F931F93CF93DF93C82F7C
:1006B000D62F8A0179015523A4F40E94F90180E024
:1006C00092E00E94EA016D2F6F5FA801112324F4CC
:1006D00044275527401B510B8C2F97010E9419026C
:1006E0000DC00E94F90182E092E00E94EA016D2FA4
:1006F0006F5F8C2FA80197010E941902DF91CF91A3
:100700001F910F91FF90EF90089508950E94460366
:1007100080E06DE20E94BE0288E06DE20E94BE02AF
:100720000895CF92DF92EF92FF920F931F93CF9392
:10073000DF9382E30E94010383E30E94010384E3C9
:100740000E940103082F85E30E940103D82F86E34E
:100750000E940103C82F87E30E940103C82E3D2F8A
:1007600020E0802F90E0822B932B0E9485038C0148
:100770003C2D20E08C2F90E0822B932B0E94850350
:10078000EC01B801882777FD8095982F0E94CA0A4E
:100790006B017C01BE01882777FD8095982F0E9410
:1007A000CA0A9B01AC01C701B6010E942F0A0E9430
:1007B000030A26EE3FE44FE054E40E94AA0B0E9495
:1007C000970A862F972FDF91CF911F910F91FF905E
:1007D000EF90DF90CF90089594EA9093BC00ECEBFB
:1007E000F0E090819923ECF7EFEFFFE83197F1F714
:1007F00000C0000092ED9093BB0094E89093BC0081
:10080000ECEBF0E090819923ECF7EFEFFFE8319704
:10081000F1F700C000006093BB0094E89093BC0027
:10082000ECEBF0E090819923ECF7EFEFFFE83197E4
:10083000F1F700C000008093BB0084E88093BC0007
:10084000ECEBF0E080818823ECF78FEF9FE80197D5
:10085000F1F700C0000084E98093BC00089594EA99
:100860009093BC00ECEBF0E090819923ECF792EDD3
:100870009093BB0094E89093BC00ECEBF0E0908187
:100880009923ECF78093BB0084E88093BC00ECEBE9
:10089000F0E080818823ECF784EA8093BC00ECEBE5
:1008A000F0E080818823ECF783ED8093BB0084E83F
:1008B0008093BC00ECEBF0E080818823ECF784E8C7
:1008C0008093BC00ECEBF0E080818823ECF7EBEB4D
:1008D000F0E08081108294E89093BC00ECEBF0E0B3
:1008E00090819923ECF708958FE060E20E94EC0379
:1008F00008954F925F926F927F928F929F92AF92E4
:10090000BF92CF92DF92EF92FF920F931F93CF93FC
:10091000DF9300D00F92CDB7DEB729833A834B83A4
:100920005C8380901A0290901B02A0901C02B090F1
:100930001D02A50194010E949E09C62ED72EF82EF5
:10094000E92E382F862F9D2DAF2DBE2DBC01CD0158
:100950000C2D1D2D232F3B2FA90198010E949F09CB
:1009600020E030E040EF51E40E94AA0B2B013C0153
:10097000802F912FAF2DBE2DBC01CD0120E030E0A6
:1009800040EF51E40E94AA0B20E030E040EF51E438
:100990000E94AA0B2AE037ED43E25CE30E94AA0B17
:1009A00020E030E0A9010E949F099B01AC01C30136
:1009B000B2010E949F0929813A814B815C810E948A
:1009C0009F092AE037ED43E25CE30E94AA0B9B01FA
:1009D000AC01C501B4010E949F09262F372FF82FC3
:1009E000E92F462F572F682F792F40931A025093E3
:1009F0001B0260931C0270931D02822F932FAF2F56
:100A0000BE2FBC01CD010F900F900F900F90DF9182
:100A1000CF911F910F91FF90EF90DF90CF90BF90FB
:100A2000AF909F908F907F906F905F904F900895C0
:100A3000CF9388E20E942F04C82F89E20E942F04DE
:100A4000382F20E08C2F90E0822B932B0E9485037F
:100A500064E670E00E94240C882777FD8095982F2B
:100A60000E94CA0A462F572F682F792FCB01BA014F
:100A7000CF910895CF92DF92EF92FF921F93CF9381
:100A8000DF93C0903A02D0903B02E0903C02F0909D
:100A90003D02C0920402D0920502E0920602F0925A
:100AA0000702609133027091340280913502909177
:100AB00036022AE037ED43E25CE30E94AA0B9B0179
:100AC000AC01C701B6010E94AA0B2091120230911D
:100AD000130240911402509115020E949F09162F93
:100AE000D72FC82FC92E862F9D2FAC2FBC2D8093BA
:100AF000120290931302A0931402B0931502BC014A
:100B0000CD0120E030E04FE753E40E949F0B8823A3
:100B10006CF080E090E0AFE7B3E480931202909332
:100B20001302A0931402B09315021AC0812F9D2FB7
:100B3000AC2FBC2DBC01CD0120E030E04FE753ECE1
:100B40000E942B0A181664F080E090E0AFE7B3EC47
:100B50008093120290931302A0931402B093150293
:100B600081E090E00E941E018A3091054CF1C09016
:100B70000402D0900502E0900602F0900702C7013F
:100B8000B60120912F0230913002409131025091F4
:100B900032020E949E09DC01CB0180930E029093E9
:100BA0000F02A0931002B0931102C0922F02D092B4
:100BB0003002E0923102F09232020E94E5000BC056
:100BC00080E090E0DC0180930E0290930F02A093EE
:100BD0001002B09311026091420270914302809121
:100BE0004402909145022091040230910502409107
:100BF0000602509107020E94AA0B20911202309126
:100C0000130240911402509115020E949F096B013A
:100C10007C0160911E0270911F02809120029091D0
:100C200021022DEC3CEC4CEC5DE30E94AA0B2091E0
:100C30000E0230910F0240911002509111020E9459
:100C4000AA0B9B01AC01C701B6010E949F09DC0100
:100C5000CB018093290290932A02A0932B02B09398
:100C60002C02DF91CF911F91FF90EF90DF90CF90FA
:100C70000895E1ECF0E010821092C00086E08093CD
:100C8000C2008FE58093C4001092C50088E980837C
:100C900008951F920F920FB60F920BB60F92112468
:100CA0000F931F932F933F934F935F936F937F9374
:100CB0008F939F93AF93BF93EF93FF938091C60061
:100CC000809337028733B9F48091420290914302B6
:100CD000A0914402B091450280930A0290930B02C6
:100CE000A0930C02B0930D0281E090E09093090272
:100CF0008093080231C08833B9F480913302909117
:100D00003402A0913502B091360280930A0290938A
:100D10000B02A0930C02B0930D0282E090E090933E
:100D200009028093080218C08933B1F480911E0231
:100D300090911F02A0912002B091210280930A029B
:100D400090930B02A0930C02B0930D0283E090E00D
:100D50009093090280930802809137028133C9F48D
:100D600060910A0270910B0280910C0290910D0229
:100D700020E030E040E85FE30E949F09DC01CB0106
:100D800080930A0290930B02A0930C02B0930D0281
:100D900086C08233C9F460910A0270910B0280917F
:100DA0000C0290910D0220E030E040EA50E40E94F5
:100DB0009F09DC01CB0180930A0290930B02A09360
:100DC0000C02B0930D026BC08433C9F460910A0227
:100DD00070910B0280910C0290910D0220E030E0A6
:100DE00040E85FE30E949E09DC01CB0180930A0288
:100DF00090930B02A0930C02B0930D0250C0853368
:100E0000C9F460910A0270910B0280910C029091DA
:100E10000D0220E030E040EA50E40E949E09DC012F
:100E2000CB0180930A0290930B02A0930C02B09323
:100E30000D0235C08333C9F460910A0270910B0230
:100E400080910C0290910D022DEC3CEC4CEC5DE39A
:100E50000E949F09DC01CB0180930A0290930B0250
:100E6000A0930C02B0930D021AC08633C1F46091B6
:100E70000A0270910B0280910C0290910D022DECF0
:100E80003CEC4CEC5DE30E949E09DC01CB018093BD
:100E90000A0290930B02A0930C02B0930D02809172
:100EA0000802909109028130910511F560910A02C2
:100EB00070910B0280910C0290910D02609342029E
:100EC00070934302809344029093450220E030E007
:100ED00040E251E40E94AA0B0E949C0A8B019C01F3
:100EE00081E061E0A80124E030E00E94190249C0DD
:100EF0008230910511F560910A0270910B02809188
:100F00000C0290910D02609333027093340280932F
:100F100035029093360220E030E040E251E40E9436
:100F2000AA0B0E949C0A8B019C0181E066E0A8014B
:100F300024E030E00E94190224C08330910509F5B5
:100F400060910A0270910B0280910C0290910D0247
:100F500060931E0270931F028093200290932102DF
:100F600020E030E040E251E40E94AA0B0E949C0A7B
:100F70008B019C0181E06BE0A80124E030E00E943D
:100F80001902FF91EF91BF91AF919F918F917F9146
:100F90006F915F914F913F912F911F910F910F9002
:100FA0000BBE0F900FBE0F901F901895AAE0B1E0F6
:100FB0008C91846E8C93EBE0F1E08081887180836A
:100FC0008C9188618C9380818861808308950E94D0
:100FD000D6070895E1E2F1E010828FEF80932501BA
:100FE00091E090932401109229018093280110929E
:100FF0002B0180932A0181EA809320011092220123
:101000008DE0808308951092290180932801109229
:101010002B01863F20F4865F80932A0108958FEF8D
:1010200080932A010895EBE0F1E090819871892B7B
:101030008083089580EA0E941308089584E40E9442
:101040001308089584E80E941308089580E60E941A
:101050001308089580E80E941308089580E20E9412
:101060001308089580E40E941308089584E00E9404
:101070001308089580E00E9413080895F8940E94D0
:10108000AA020E9444010E94AC010E94E7070E944C
:10109000EA07789408958F929F92AF92BF92EF9251
:1010A000FF920F931F934B015C01DA01C9018092FB
:1010B000420290924302A0924402B0924502809371
:1010C000330290933402A0933502B0933602E0923B
:1010D0001E02F0921F0200932002109321021F9122
:1010E0000F91FF90EF90BF90AF909F908F900895D9
:1010F0000E9486030E9474040E943E080E943906E2
:101100000E94E5006AE979E981E191E420E030E0BC
:1011100040E051E40F2EF0E0EF2EF0E0FF2EF0EA79
:101120000F2FF0E41F2FF02D0E944B086091420218
:1011300070914302809144029091450220E030E09A
:1011400040E251E40E94AA0B0E949C0A8B019C0180
:1011500081E061E0A80124E030E00E941902609182
:10116000330270913402809135029091360220E072
:1011700030E040E251E40E94AA0B0E949C0A8B01DD
:101180009C0181E066E0A80124E030E00E941902A1
:1011900060911E0270911F028091200290912102A5
:1011A00020E030E040E251E40E94AA0B0E949C0A39
:1011B0008B019C0181E06BE0A80124E030E00E94FB
:1011C00019020F2EFFEF4F2E5524F02D06EC10E0E4
:1011D00077247A940E949103EC010E9418056B0118
:1011E0007C01BE01882777FD8095982F0E94CA0A4E
:1011F0002DEC3CEC4CEC5DE30E94AA0B4B015C0136
:10120000C701B6010E94970A882777FD8095982F1D
:101210000E94CA0A9B01AC01C501B4010E94790475
:101220000E94970ADC01CB01EC01BE01882777FD03
:101230008095982F0E94CA0ADC01CB0180933A0264
:1012400090933B02A0933C02B0933D020E943A056A
:10125000C0902902D0902A02E0902B02F0902C023C
:10126000C701B60120E030E0A9010E949F0B1816CB
:10127000ACF4C701B60120E030E040EA51E40E943E
:101280009F090E949C0ADC01CB018F3F910508F069
:10129000C2010E9403080E941A0829C0C701B601B2
:1012A00020E030E0A9010E942B0A8823ACF460E022
:1012B00070E080EA91E4A70196010E949E090E94D5
:1012C0009C0ADC01CB018F3F910508F0C2010E940E
:1012D00003080E941E080BC0C701B60120E030E0E1
:1012E000A9010E942B0A882311F40E943A08F801F0
:1012F000708286E69EE00197F1F70000CC59C0832A
:1013000086E69EE00197F1F7000060912902709156
:101310002A0280912B0290912C0220E030E040E0E4
:101320005FE30E94AA0B20E030E04EEF52E40E94FF
:101330009F090E949C0AF80160834CCF5058BB273C
:10134000AA270ED0C2C1B3D130F0B8D120F031F409
:101350009F3F11F41EF483C10EF4E095E7FB79C1C1
:10136000E92FC4D180F3BA17620773078407950782
:1013700018F071F49EF5DCC10EF4E0950B2EBA2F37
:10138000A02D0B01B90190010C01CA01A00111248B
:10139000FF27591B99F0593F50F4503E68F11A1637
:1013A000F040A22F232F342F4427585FF3CF4695C8
:1013B00037952795A795F0405395C9F77EF41F16EA
:1013C000BA0B620B730B840BBAF09150A1F0FF0FB4
:1013D000BB1F661F771F881FC2F70EC0BA0F621FA0
:1013E000731F841F48F4879577956795B795F79590
:1013F0009E3F08F0B3CF9395880F08F09927EE0F22
:10140000979587950895DF93DD27B92FBF7740E83B
:101410005FE31616170648075B0710F4D92F93D120
:101420009F938F937F936F93F8D1E4EEF0E01AD1FE
:101430004CD12F913F914F915F9198D1DD2349F08D
:101440009058A2EA2AED3FE049EC5FE3D0785D27AF
:1014500087DFDF913AC1D9D008F481E008950CD03C
:1014600034C12CD140F023D130F021F45F3F19F08A
:10147000F0C051115EC1F3C039D198F39923C9F37B
:101480005523B1F3951B550BBB27AA27621773078A
:10149000840738F09F5F5F4F220F331F441FAA1F3E
:1014A000A9F333D00E2E3AF0E0E830D091505040FE
:1014B000E695001CCAF729D0FE2F27D0660F771FAC
:1014C000881FBB1F261737074807AB07B0E809F08E
:1014D000BB0B802DBF01FF2793585F4F2AF09E3F23
:1014E000510568F0B6C025C15F3FECF3983EDCF3D0
:1014F000869577956795B795F7959F5FC9F7880F9C
:10150000911D9695879597F90895E1E0660F771FED
:10151000881FBB1F621773078407BA0720F0621B7E
:10152000730B840BBA0BEE1F88F7E095089504D077
:101530006894B111FEC00895E1D088F09F5790F0F3
:10154000B92F9927B751A0F0D1F0660F771F881FE8
:10155000991F1AF0BA95C9F712C0B13081F0E8D0DE
:10156000B1E00895E5C0672F782F8827B85F39F07C
:10157000B93FCCF3869577956795B395D9F73EF447
:1015800090958095709561957F4F8F4F9F4F0895EF
:10159000E89409C097FB3EF490958095709561950D
:1015A0007F4F8F4F9F4F9923A9F0F92F96E9BB27C3
:1015B0009395F695879577956795B795F111F8CF3F
:1015C000FAF4BB0F11F460FF1BC06F5F7F4F8F4FAA
:1015D0009F4F16C0882311F096E911C0772321F0A0
:1015E0009EE8872F762F05C0662371F096E8862F38
:1015F00070E060E02AF09A95660F771F881FDAF78F
:10160000880F9695879597F90895990F0008550FBB
:10161000AA0BE0E8FEEF16161706E807F907C0F078
:1016200012161306E407F50798F0621B730B840B80
:10163000950B39F40A2661F0232B242B252B21F45A
:1016400008950A2609F4A140A6958FEF811D811DFA
:10165000089597F99F6780E870E060E008959FEF34
:1016600080EC0895DF93CF931F930F93FF92EF9237
:10167000DF927B018C01689405C0DA2EEF0176D0F1
:10168000FE01E894A5912591359145915591AEF3D0
:10169000EF0166DEFE019701A801DA9479F7DF9089
:1016A000EF90FF900F911F91CF91DF91089500244B
:1016B0000A941616170618060906089500240A94B7
:1016C00012161306140605060895092E0394000C3D
:1016D00011F4882352F0BB0F40F4BF2B11F460FFCC
:1016E00004C06F5F7F4F8F4F9F4F089557FD9058F5
:1016F000440F551F59F05F3F71F04795880F97FBD6
:10170000991F61F09F3F79F087950895121613068F
:101710001406551FF2CF4695F1DF08C016161706BE
:101720001806991FF1CF86957105610508940895F3
:10173000E894BB2766277727CB0197F9089565DFE3
:1017400008F48FEF08959B01AC0160E070E080E841
:101750009FE385CE0BD0B9CFAADF28F0AFDF18F01A
:10176000952309F076CF7BCF1124E3CFBFDFA0F321
:10177000959FD1F3950F50E0551F629FF001729F26
:10178000BB27F00DB11D639FAA27F00DB11DAA1F45
:10179000649F6627B00DA11D661F829F2227B00D92
:1017A000A11D621F739FB00DA11D621F839FA00D1D
:1017B000611D221F749F3327A00D611D231F849F6D
:1017C000600D211D822F762F6A2F11249F575040C4
:1017D0008AF0E1F088234AF0EE0FFF1FBB1F661F5F
:1017E000771F881F91505040A9F79E3F510570F018
:1017F00030CF9FCF5F3FECF3983EDCF38695779533
:101800006795B795F795E7959F5FC1F7FE2B880F12
:10181000911D9695879597F908959B01AC019ACFF4
:10182000AA1BBB1B51E107C0AA1FBB1FA617B70706
:1018300010F0A61BB70B881F991F5A95A9F7809522
:101840009095BC01CD01089597FB092E07260AD07B
:1018500077FD04D0E5DF06D000201AF4709561957D
:101860007F4F0895F6F7909581959F4F089597FBC8
:10187000092E05260ED057FD04D014D00AD0001C26
:1018800038F450954095309521953F4F4F4F5F4F1D
:101890000895F6F790958095709561957F4F8F4FDD
:1018A0009F4F0895A1E21A2EAA1BBB1BFD010DC07C
:1018B000AA1FBB1FEE1FFF1FA217B307E407F50700
:1018C00020F0A21BB30BE40BF50B661F771F881FDC
:1018D000991F1A9469F760957095809590959B0172
:0C18E000AC01BD01CF010895F894FFCFCA
:0418EC002D002B00A0
:00000001FF
