:100000000C9489000C94AA000C94AA000C94AA00E9
:100010000C94AA000C94AA000C94AA000C94AA00B8
:100020000C94AA000C94AA000C94AA000C94AA00A8
:100030000C94AA000C94AA000C94AA000C94AA0098
:100040000C94AA000C94AA000C94AA000C94AA0088
:100050000C94AA000C94AA000C94AA000C94AA0078
:100060000C94AA000C94C0060C94AA000C94AA004C
:100070000C94AA000C94AA000C94AA000C94AA0058
:100080000C94AA000C94AA000C94AA000C94AA0048
:100090000C94AA000C94AA000C94AA000C94AA0038
:1000A0000C94AA000C94AA000C94AA000C94AA0028
:1000B0000C94AA000C94CE000C94AA000C94AA00F4
:1000C0000C94AA000C94AA000C94AA000C94AA0008
:1000D0000C94AA000C94AA000C94AA000C94AA00F8
:1000E0000C94AA00084AD73B3BCE016E84BCBFFDEE
:1000F000C12F3D6C74319ABD56833DDA3D00C77FF8
:1001000011BED9E4BB4C3E916BAAAABE0000008090
:100110003F0011241FBECFEFD1E2DEBFCDBF00E014
:100120000CBF12E0A0E0B2E0EAE2FAE100E00BBFAF
:1001300002C007900D92A430B107D9F712E0A4E0F5
:10014000B2E001C01D92A236B107E1F70E94EF08AC
:100150000C94130D0C94000010924802E1EAF0E0B8
:10016000108286EC8093A50087E68093A40010920D
:10017000A9001092A8001092AB001092AA00109251
:10018000AD001092AC001092A7001092A600109241
:10019000A0001092A20081E0808308951F920F9228
:1001A0000FB60F9211248F93809148028F5F809336
:1001B000480286EC8093A50087E68093A4008F9187
:1001C0000F900FBE0F901F901895F8940E94AC00EE
:1001D00081E080937200789408950F931F93CF93DA
:1001E000DF9310914802C091A400D091A5000E9415
:1001F000E500CE01A0E0B0E0BC01CD016756764C31
:100200008040904029E939E340E050E00E94D60C5C
:10021000DA01C901810F911DA11DB11D8C019D0144
:1002200048EE53E0049FC001059F900D149F900D70
:100230001124DF91CF911F910F9108950F931F9378
:10024000CF93DF938C01C09148026091A40070911C
:10025000A50080E090E06756764C8040904029E908
:1002600039E340E050E00E94D60CD0E0C20FD31F2B
:100270000115110511F40E94E5008C2F9D2FDF91CF
:10028000CF911F910F91089586E69EE00197F1F7B7
:1002900000004098419880E388B9429AEFEFF7E474
:1002A0003197F1F700C000004298E6E6FEE0319792
:1002B000F1F700004098419888B9429AEFEFF7E4CF
:1002C0003197F1F700C000004298E6E6FEE0319772
:1002D000F1F700004098419888B9429A8FEF97E46F
:1002E0000197F1F700C000004298E6E6FEE0319782
:1002F000F1F700004098419880E288B9429A8FEF68
:1003000097E40197F1F700C000004298089598B172
:100310009F7098B998B1282F207F922B98B9409858
:100320004198429AEFEFF7E43197F1F700C00000EF
:10033000429898B19F7098B998B18295807F892B27
:1003400088B940984198429A8FEF97E40197F1F766
:1003500000C000004298089586E69EE00197F1F7FC
:10036000000088E20E94870181E00E94870186E008
:100370000E9487018EE00E94870180E80E94870129
:10038000089598B19F7098B998B1282F207F922B2B
:1003900098B9409A4198429AEFEFF7E43197F1F714
:1003A00000C00000429898B19F7098B998B18295AA
:1003B000807F892B88B9409A4198429A8FEF97E4C1
:1003C0000197F1F700C000004298089580E80E946C
:1003D00087010895CF93DF93EC018881882331F062
:1003E00021960E94C10189918823D9F7DF91CF918D
:1003F0000895823079F0833018F48130C9F405C053
:10040000833069F08430A1F40FC0862F81580E9498
:1004100087010895862F81540E9487010895862FB1
:100420008D560E9487010895862F8D520E94870164
:1004300008950F931F93CF93DF938A01E9018823D7
:1004400011F0662319F40E94E60102C00E94F9012E
:10045000C530D10571F4C80160E177E20E94AF0CAC
:10046000CB01C09690934302809342020E94C10147
:1004700003C0C430D105B9F4C80168EE73E00E942E
:10048000AF0CCB0170934502609344026AE070E0C8
:100490000E94AF0CC09690935D0280935C020E9414
:1004A000C10181E001C080E0C330D10511F081308D
:1004B000B1F4C80164E670E00E94AF0CCB01709308
:1004C0004502609344026AE070E00E94AF0CC0965F
:1004D00090935502809354020E94C10181E0C23082
:1004E000D10511F08130B1F42AE030E0C801B90142
:1004F0000E94AF0CCB017093450260934402B90196
:100500000E94AF0CC09690934E0280934D020E94C1
:10051000C10181E0C130D10511F0813061F4C80121
:100520006AE070E00E94AF0CC09690935B028093EB
:100530005A020E94C101C630D1051CF085E40E9418
:10054000C101DF91CF911F910F91089581E00E9429
:100550008701089587B1876F87B988B1807888B996
:100560000895ECEBF0E0108280E18093B8001092E7
:10057000B9001092BA0084E08083089594EA9093C1
:10058000BC00ECEBF0E090819923ECF7EFEFFFE893
:100590003197F1F700C0000096EA9093BB0094E811
:1005A0009093BC00ECEBF0E090819923ECF7EFEF37
:1005B000FFE83197F1F700C000006093BB0094E8BA
:1005C0009093BC00ECEBF0E090819923ECF7EFEF17
:1005D000FFE83197F1F700C000008093BB0084E88A
:1005E0008093BC00ECEBF0E080818823ECF78FEF88
:1005F0009FE80197F1F700C0000084E98093BC00F8
:10060000089594EA9093BC00ECEBF0E0908199237C
:10061000ECF796EA9093BB0094E89093BC00ECEB67
:10062000F0E090819923ECF78093BB0084E88093FD
:10063000BC00ECEBF0E080818823ECF784EA809347
:10064000BC00ECEBF0E080818823ECF787EA809334
:10065000BB0084E88093BC00ECEBF0E08081882351
:10066000ECF784E88093BC00ECEBF0E08081882319
:10067000ECF7EBEBF0E08081108294E89093BC0003
:10068000ECEBF0E090819923ECF70895F8940E9448
:10069000AA020E9444010E94AC010E94B102789417
:1006A0000895EF92FF920F931F93CF93DF93C82F7C
:1006B000D62F8A0179015523A4F40E94F90180E024
:1006C00092E00E94EA016D2F6F5FA801112324F4CC
:1006D00044275527401B510B8C2F97010E9419026C
:1006E0000DC00E94F90182E092E00E94EA016D2FA4
:1006F0006F5F8C2FA80197010E941902DF91CF91A3
:100700001F910F91FF90EF90089508950E94460366
:1007100080E06DE20E94BE0288E06DE20E94BE02AF
:100720000895CF92DF92EF92FF920F931F93CF9392
:10073000DF9382E30E94010383E30E94010384E3C9
:100740000E940103082F85E30E940103D82F86E34E
:100750000E940103C82F87E30E940103C82E3D2F8A
:1007600020E0802F90E0822B932B0E9485038C0148
:100770003C2D20E08C2F90E0822B932B0E94850350
:10078000EC01B801882777FD8095982F0E94690BAE
:100790006B017C01BE01882777FD8095982F0E9410
:1007A000690B9B01AC01C701B6010E94CE0A0E94F1
:1007B000A20A26EE3FE44FE054E40E94490C0E9456
:1007C000360B862F972FDF91CF911F910F91FF90BE
:1007D000EF90DF90CF90089594EA9093BC00ECEBFB
:1007E000F0E090819923ECF7EFEFFFE83197F1F714
:1007F00000C0000092ED9093BB0094E89093BC0081
:10080000ECEBF0E090819923ECF7EFEFFFE8319704
:10081000F1F700C000006093BB0094E89093BC0027
:10082000ECEBF0E090819923ECF7EFEFFFE83197E4
:10083000F1F700C000008093BB0084E88093BC0007
:10084000ECEBF0E080818823ECF78FEF9FE80197D5
:10085000F1F700C0000084E98093BC00089594EA99
:100860009093BC00ECEBF0E090819923ECF792EDD3
:100870009093BB0094E89093BC00ECEBF0E0908187
:100880009923ECF78093BB0084E88093BC00ECEBE9
:10089000F0E080818823ECF784EA8093BC00ECEBE5
:1008A000F0E080818823ECF783ED8093BB0084E83F
:1008B0008093BC00ECEBF0E080818823ECF784E8C7
:1008C0008093BC00ECEBF0E080818823ECF7EBEB4D
:1008D000F0E08081108294E89093BC00ECEBF0E0B3
:1008E00090819923ECF708958FE060E20E94EC0379
:1008F00008954F925F926F927F928F929F92AF92E4
:10090000BF92CF92DF92EF92FF920F931F93CF93FC
:10091000DF9300D00F92CDB7DEB729833A834B83A4
:100920005C8380903A0290903B02A0903C02B09091
:100930003D02A50194010E943D0AC62ED72EF82E35
:10094000E92E382F862F9D2DAF2DBE2DBC01CD0158
:100950000C2D1D2D232F3B2FA90198010E943E0A2B
:1009600020E030E040EF51E40E94490C2B013C01B3
:10097000802F912FAF2DBE2DBC01CD0120E030E0A6
:1009800040EF51E40E94490C20E030E040EF51E498
:100990000E94490C2AE037ED43E25CE30E94490CD7
:1009A00020E030E0A9010E943E0A9B01AC01C30196
:1009B000B2010E943E0A29813A814B815C810E94EA
:1009C0003E0A2AE037ED43E25CE30E94490C9B01BA
:1009D000AC01C501B4010E943E0A262F372FF82F23
:1009E000E92F462F572F682F792F40933A025093C3
:1009F0003B0260933C0270933D02822F932FAF2FF6
:100A0000BE2FBC01CD010F900F900F900F90DF9182
:100A1000CF911F910F91FF90EF90DF90CF90BF90FB
:100A2000AF909F908F907F906F905F904F900895C0
:100A3000CF9388E20E942F04C82F89E20E942F04DE
:100A4000382F20E08C2F90E0822B932B0E9485037F
:100A500064E670E00E94C30C882777FD8095982F8C
:100A60000E94690B462F572F682F792FCB01BA01AF
:100A7000CF910895CF92DF92EF92FF921F93CF9381
:100A8000DF93C0905602D0905702E0905802F09049
:100A90005902C0920402D0920502E0920602F0923E
:100AA000070260914F027091500280915102909123
:100AB00052022AE037ED43E25CE30E94490C9B01BD
:100AC000AC01C701B6010E94490C20911A02309175
:100AD0001B0240911C0250911D020E943E0AC62E2C
:100AE000172FD82FC92F862F912FAD2FBC2F809372
:100AF0001A0290931B02A0931C02B0931D02BC012A
:100B0000CD0120E030E04FE753E40E943E0C882303
:100B10006CF080E090E0AFE7B3E480931A0290932A
:100B20001B02A0931C02B0931D021AC08C2D912FA2
:100B3000AD2FBC2FBC01CD0120E030E04FE753ECDE
:100B40000E94CA0A181664F080E090E0AFE7B3ECA8
:100B500080931A0290931B02A0931C02B0931D0273
:100B600081E090E00E941E018A3091054CF1C09016
:100B70000402D0900502E0900602F0900702C7013F
:100B8000B60120912602309127024091280250910F
:100B900029020E943D0ADC01CB0180930E02909352
:100BA0000F02A0931002B0931102C0922602D092BD
:100BB0002702E0922802F09229020E94E5000BC071
:100BC00080E090E0DC0180930E0290930F02A093EE
:100BD0001002B093110260915E0270915F028091E9
:100BE00060029091610220910402309105024091CF
:100BF0000602509107020E94490C20911A0230917E
:100C00001B0240911C0250911D020E943E0A6B0182
:100C10007C0160913E0270913F0280914002909170
:100C200041022DEC3CEC4CEC5DE30E94490C209120
:100C30000E0230910F0240911002509111020E9459
:100C4000490C9B01AC01C701B6010E943E0A162F58
:100C5000D72FC82FC92E862F9D2FAC2FBC2D809348
:100C6000490290934A02A0934B02B0934C02BC01FC
:100C7000CD0120E030E04FE753E40E943E0C882392
:100C80006CF080E090E0AFE7B3E48093490290938A
:100C90004A02A0934B02B0934C021AC0812F9D2FA1
:100CA000AC2FBC2DBC01CD0120E030E04FE753EC70
:100CB0000E94CA0A181664F080E090E0AFE7B3EC37
:100CC0008093490290934A02A0934B02B0934C0246
:100CD0008091160290911702A0911802B09119020A
:100CE0008093120290931302A0931402B093150202
:100CF00080911E0290911F02A0912002B0912102CA
:100D00008093160290931702A0931802B0931902D1
:100D10008091220290912302A0912402B091250299
:100D200080931E0290931F02A0932002B093210291
:100D30008091260290912702A0912802B091290269
:100D40008093220290932302A0932402B093250261
:100D5000DF91CF911F91FF90EF90DF90CF9008959A
:100D6000E1ECF0E010821092C00086E08093C200B7
:100D70008FE58093C4001092C50088E980830895B0
:100D80001F920F920FB60F920BB60F9211240F9372
:100D90001F932F933F934F935F936F937F938F9303
:100DA0009F93AF93BF93EF93FF938091C60080937F
:100DB00053028733B9F480915E0290915F02A09153
:100DC0006002B091610280930A0290930B02A0939B
:100DD0000C02B0930D0281E090E0909309028093A1
:100DE000080231C08833B9F480914F0290915002CB
:100DF000A0915102B091520280930A0290930B028B
:100E0000A0930C02B0930D0282E090E0909309024F
:100E10008093080218C08933B1F480913E0290910A
:100E20003F02A0914002B091410280930A02909348
:100E30000B02A0930C02B0930D0283E090E090931C
:100E4000090280930802809153028133C9F46091B2
:100E50000A0270910B0280910C0290910D0220E029
:100E600030E040E85FE30E943E0ADC01CB01809362
:100E70000A0290930B02A0930C02B0930D0286C05D
:100E80008233C9F460910A0270910B0280910C02C6
:100E900090910D0220E030E040EA50E40E943E0ACA
:100EA000DC01CB0180930A0290930B02A0930C0209
:100EB000B0930D026BC08433C9F460910A02709143
:100EC0000B0280910C0290910D0220E030E040E88E
:100ED0005FE30E943D0ADC01CB0180930A029093FC
:100EE0000B02A0930C02B0930D0250C08533C9F4DD
:100EF00060910A0270910B0280910C0290910D0298
:100F000020E030E040EA50E40E943D0ADC01CB01E1
:100F100080930A0290930B02A0930C02B0930D02EF
:100F200035C08333C9F460910A0270910B0280913D
:100F30000C0290910D022DEC3CEC4CEC5DE30E9418
:100F40003E0ADC01CB0180930A0290930B02A0932E
:100F50000C02B0930D021AC08633C1F460910A02EC
:100F600070910B0280910C0290910D022DEC3CECE3
:100F70004CEC5DE30E943D0ADC01CB0180930A0248
:100F800090930B02A0930C02B0930D028091080283
:100F9000909109028130910511F560910A027091DA
:100FA0000B0280910C0290910D0260935E0270938F
:100FB0005F02809360029093610220E030E040E2A3
:100FC00051E40E94490C0E943B0B8B019C0181E083
:100FD00061E0A80124E030E00E94190249C082309B
:100FE000910511F560910A0270910B0280910C023B
:100FF00090910D0260934F027093500280935102C2
:101000009093520220E030E040E251E40E94490C0B
:101010000E943B0B8B019C0181E066E0A80124E06B
:1010200030E00E94190224C08330910509F56091D7
:101030000A0270910B0280910C0290910D02609354
:101040003E0270933F02809340029093410220E061
:1010500030E040E251E40E94490C0E943B0B8B01BE
:101060009C0181E06BE0A80124E030E00E941902BD
:10107000FF91EF91BF91AF919F918F917F916F9170
:101080005F914F913F912F911F910F910F900BBE48
:101090000F900FBE0F901F901895AAE0B1E08C91B1
:1010A000846E8C93EBE0F1E08081887180838C9179
:1010B00088618C9380818861808308950E944D08A7
:1010C0000895E1E2F1E010828FEF8093250191E035
:1010D00090932401109229018093280110922B01F2
:1010E00080932A0181EA80932001109222018DE0F1
:1010F00080830895109229018093280110922B017A
:10110000863F20F4865F80932A0108958FEF8093B5
:101110002A010895EBE0F1E090819871892B80839A
:10112000089580EA0E948A08089584E40E948A084B
:10113000089584E80E948A08089580E60E948A083B
:10114000089580E80E948A08089580E20E948A0833
:10115000089580E40E948A08089584E00E948A0825
:10116000089580E00E948A080895F8940E94AA02D7
:101170000E9444010E94AC010E945E080E94610826
:10118000789408958F929F92AF92BF92EF92FF92C0
:101190000F931F934B015C01DA01C90180925E023B
:1011A00090925F02A0926002B092610280934F021F
:1011B00090935002A0935102B0935202E0923E02EB
:1011C000F0923F0200934002109341021F910F9151
:1011D000FF90EF90BF90AF909F908F9008950E94E6
:1011E00086030E9474040E94B5080E94B0060E9403
:1011F000E5006AE979E981E191E420E030E040EA44
:1012000050E40F2EF0E0EF2EF0E0FF2EF0E00F2F75
:10121000F0E01F2FF02D0E94C20860915E027091D5
:101220005F02809160029091610220E030E040E234
:1012300051E40E94490C0E943B0B8B019C0181E010
:1012400061E0A80124E030E00E94190260914F02A1
:1012500070915002809151029091520220E030E052
:1012600040E251E40E94490C0E943B0B8B019C011F
:1012700081E066E0A80124E030E00E94190260915C
:101280003E0270913F02809140029091410220E025
:1012900030E040E251E40E94490C0E943B0B8B017C
:1012A0009C0181E06BE0A80124E030E00E9419027B
:1012B0000F2EFFEF4F2E5524F02D06EC10E0772473
:1012C0007A940E949103EC010E9418056B017C0145
:1012D000BE01882777FD8095982F0E94690B2DEC21
:1012E0003CEC4CEC5DE30E94490C4B015C01C701F6
:1012F000B6010E94360B882777FD8095982F0E94B3
:10130000690B9B01AC01C501B4010E9479040E94E4
:10131000360BDC01CB01EC01BE01882777FD8095FF
:10132000982F0E94690BDC01CB01809356029093A9
:101330005702A0935802B093590260910402709131
:1013400005028091060290910702209126023091B9
:10135000270240912802509129020E94490C20E066
:1013600030E0A9010E94CA0A882344F40E94B1080F
:101370008FEF9FE80197F1F700C000000E943A0547
:10138000C0904902D0904A02E0904B02F0904C028B
:10139000C701B60120E030E0A9010E943E0C1816FA
:1013A000ACF4C701B60120E030E040EA51E40E940D
:1013B0003E0A0E943B0BDC01CB018F3F910508F0F8
:1013C000C2010E947A080E94910829C0C701B60193
:1013D00020E030E0A9010E94CA0A8823ACF460E052
:1013E00070E080EA91E4A70196010E943D0A0E9404
:1013F0003B0BDC01CB018F3F910508F0C2010E943D
:101400007A080E9495080BC0C701B60120E030E0C1
:10141000A9010E94CA0A882311F40E94B10886E635
:1014200096EEA0E081509040A040E1F7D8017C9278
:10143000E6E6FEE03197F1F70000CC59CC93E6E602
:10144000FEE03197F1F700006091490270914A0285
:1014500080914B0290914C0220E030E040E05FE34D
:101460000E94490C20E030E04EEF52E40E943E0A18
:101470000E943B0BD8016C9324CF5058BB27AA275E
:101480000ED0C2C1B3D130F0B8D120F031F49F3FBB
:1014900011F41EF483C10EF4E095E7FB79C1E92F46
:1014A000C4D180F3BA17620773078407950718F051
:1014B00071F49EF5DCC10EF4E0950B2EBA2FA02D31
:1014C0000B01B90190010C01CA01A0011124FF27F1
:1014D000591B99F0593F50F4503E68F11A16F040EC
:1014E000A22F232F342F4427585FF3CF46953795EB
:1014F0002795A795F0405395C9F77EF41F16BA0BB0
:10150000620B730B840BBAF09150A1F0FF0FBB1F5D
:10151000661F771F881FC2F70EC0BA0F621F731FA6
:10152000841F48F4879577956795B795F7959E3F03
:1015300008F0B3CF9395880F08F09927EE0F979591
:1015400087950895DF93DD27B92FBF7740E85FE3E4
:101550001616170648075B0710F4D92F93D19F93EF
:101560008F937F936F93F8D1E4EEF0E01AD14CD1D2
:101570002F913F914F915F9198D1DD2349F0905881
:10158000A2EA2AED3FE049EC5FE3D0785D2787DFF0
:10159000DF913AC1D9D008F481E008950CD034C16C
:1015A0002CD140F023D130F021F45F3F19F0F0C08E
:1015B00051115EC1F3C039D198F39923C9F3552372
:1015C000B1F3951B550BBB27AA2762177307840736
:1015D00038F09F5F5F4F220F331F441FAA1FA9F3EC
:1015E00033D00E2E3AF0E0E830D091505040E695DE
:1015F000001CCAF729D0FE2F27D0660F771F881F3F
:10160000BB1F261737074807AB07B0E809F0BB0B2D
:10161000802DBF01FF2793585F4F2AF09E3F510551
:1016200068F0B6C025C15F3FECF3983EDCF38695C9
:1016300077956795B795F7959F5FC9F7880F911DC7
:101640009695879597F90895E1E0660F771F881FB3
:10165000BB1F621773078407BA0720F0621B730B66
:10166000840BBA0BEE1F88F7E095089504D06894B8
:10167000B111FEC00895E1D088F09F5790F0B92FC6
:101680009927B751A0F0D1F0660F771F881F991FD7
:101690001AF0BA95C9F712C0B13081F0E8D0B1E0C4
:1016A0000895E5C0672F782F8827B85F39F0B93FD4
:1016B000CCF3869577956795B395D9F73EF49095D9
:1016C0008095709561957F4F8F4F9F4F0895E89457
:1016D00009C097FB3EF490958095709561957F4F7A
:1016E0008F4F9F4F9923A9F0F92F96E9BB27939528
:1016F000F695879577956795B795F111F8CFFAF438
:10170000BB0F11F460FF1BC06F5F7F4F8F4F9F4F68
:1017100016C0882311F096E911C0772321F09EE8C6
:10172000872F762F05C0662371F096E8862F70E02C
:1017300060E02AF09A95660F771F881FDAF7880F06
:101740009695879597F90895990F0008550FAA0B5C
:10175000E0E8FEEF16161706E807F907C0F01216C4
:101760001306E407F50798F0621B730B840B950BC7
:1017700039F40A2661F0232B242B252B21F408951C
:101780000A2609F4A140A6958FEF811D811D0895B9
:1017900097F99F6780E870E060E008959FEF80EC24
:1017A0000895DF93CF931F930F93FF92EF92DF92F1
:1017B0007B018C01689405C0DA2EEF0176D0FE0122
:1017C000E894A5912591359145915591AEF3EF019E
:1017D00066DEFE019701A801DA9479F7DF90EF90B9
:1017E000FF900F911F91CF91DF91089500240A94EB
:1017F0001616170618060906089500240A941216EC
:101800001306140605060895092E0394000C11F41E
:10181000882352F0BB0F40F4BF2B11F460FF04C0CB
:101820006F5F7F4F8F4F9F4F089557FD9058440F24
:10183000551F59F05F3F71F04795880F97FB991F2F
:1018400061F09F3F79F087950895121613061406EC
:10185000551FF2CF4695F1DF08C016161706180679
:10186000991FF1CF86957105610508940895E89454
:10187000BB2766277727CB0197F9089565DF08F422
:101880008FEF08959B01AC0160E070E080E89FE37A
:1018900085CE0BD0B9CFAADF28F0AFDF18F09523A3
:1018A00009F076CF7BCF1124E3CFBFDFA0F3959F64
:1018B000D1F3950F50E0551F629FF001729FBB2737
:1018C000F00DB11D639FAA27F00DB11DAA1F649FE3
:1018D0006627B00DA11D661F829F2227B00DA11D96
:1018E000621F739FB00DA11D621F839FA00D611D1C
:1018F000221F749F3327A00D611D231F849F600D3D
:10190000211D822F762F6A2F11249F5750408AF075
:10191000E1F088234AF0EE0FFF1FBB1F661F771F01
:10192000881F91505040A9F79E3F510570F030CF6D
:101930009FCF5F3FECF3983EDCF3869577956795F4
:10194000B795F795E7959F5FC1F7FE2B880F911D1F
:101950009695879597F908959B01AC019ACFAA1B9C
:10196000BB1B51E107C0AA1FBB1FA617B70710F08A
:10197000A61BB70B881F991F5A95A9F780959095BC
:10198000BC01CD01089597FB092E07260AD077FDEB
:1019900004D0E5DF06D000201AF4709561957F4FE2
:1019A0000895F6F7909581959F4F089597FB092E1E
:1019B00005260ED057FD04D014D00AD0001C38F4F0
:1019C00050954095309521953F4F4F4F5F4F08956B
:1019D000F6F790958095709561957F4F8F4F9F4F4B
:1019E0000895A1E21A2EAA1BBB1BFD010DC0AA1F60
:1019F000BB1FEE1FFF1FA217B307E407F50720F078
:101A0000A21BB30BE40BF50B661F771F881F991FF2
:101A10001A9469F760957095809590959B01AC013B
:0A1A2000BD01CF010895F894FFCF37
:041A2A002D002B0060
:00000001FF
