:100000000C9489000C94AA000C94AA000C94AA00E9
:100010000C94AA000C94AA000C94AA000C94AA00B8
:100020000C94AA000C94AA000C94AA000C94AA00A8
:100030000C94AA000C94AA000C94AA000C94AA0098
:100040000C94AA000C94AA000C94AA000C94AA0088
:100050000C94AA000C94AA000C94AA000C94AA0078
:100060000C94AA000C94AA000C94AA000C94AA0068
:100070000C94AA000C94AA000C94AA000C94AA0058
:100080000C94AA000C94AA000C94AA000C94AA0048
:100090000C94AA000C94AA000C94AA000C94AA0038
:1000A0000C94AA000C94AA000C94AA000C94AA0028
:1000B0000C94AA000C94CE000C94AA000C94AA00F4
:1000C0000C94AA000C94AA000C94AA000C94AA0008
:1000D0000C94AA000C94AA000C94AA000C94AA00F8
:1000E0000C94AA00084AD73B3BCE016E84BCBFFDEE
:1000F000C12F3D6C74319ABD56833DDA3D00C77FF8
:1001000011BED9E4BB4C3E916BAAAABE0000008090
:100110003F0011241FBECFEFD1E2DEBFCDBF00E014
:100120000CBF12E0A0E0B2E0ECE6F1E100E00BBFB2
:1001300002C007900D92A430B107D9F712E0A4E0F5
:10014000B2E001C01D92A334B107E1F70E94480557
:100150000C94B4080C94000010922A02E1EAF0E03A
:10016000108286EC8093A50087E68093A40010920D
:10017000A9001092A8001092AB001092AA00109251
:10018000AD001092AC001092A7001092A600109241
:10019000A0001092A20081E0808308951F920F9228
:1001A0000FB60F9211248F9380912A028F5F809354
:1001B0002A0286EC8093A50087E68093A4008F91A5
:1001C0000F900FBE0F901F901895F8940E94AC00EE
:1001D00081E080937200789408951F93CF93DF930A
:1001E00010912A02C091A400D091A5000E94E500C0
:1001F000CE01A0E0B0E0BC01CD016756764C804056
:10020000904029E939E340E050E00E946F08812FD7
:1002100090E0280F391F822F932FDF91CF911F91EC
:10022000089586E69EE00197F1F700004098419816
:1002300080E388B9429AEFEFF7E43197F1F700C015
:1002400000004298E6E6FEE03197F1F700004098A2
:10025000419888B9429AEFEFF7E43197F1F700C07F
:1002600000004298E6E6FEE03197F1F70000409882
:10027000419888B9429A8FEF97E40197F1F700C04F
:1002800000004298E6E6FEE03197F1F70000409862
:10029000419880E288B9429A8FEF97E40197F1F78D
:1002A00000C000004298089598B19F7098B998B125
:1002B000282F207F922B98B940984198429AEFEFCF
:1002C000F7E43197F1F700C00000429898B19F70B1
:1002D00098B998B18295807F892B88B940984198C8
:1002E000429A8FEF97E40197F1F700C0000042981F
:1002F000089586E69EE00197F1F7000088E20E94EB
:10030000540181E00E94540186E00E9454018EE075
:100310000E94540180E80E945401089598B19F7092
:1003200098B998B1282F207F922B98B9409A41987C
:10033000429AEFEFF7E43197F1F700C000004298DE
:1003400098B19F7098B998B18295807F892B88B9B0
:10035000409A4198429A8FEF97E40197F1F700C0D5
:1003600000004298089580E80E9454010895CF93B8
:10037000DF93EC018881882331F021960E948E0161
:1003800089918823D9F7DF91CF910895823079F050
:10039000833018F48130C9F405C0833069F08430AB
:1003A000A1F40FC0862F81580E9454010895862F12
:1003B00081540E9454010895862F8D560E94540145
:1003C0000895862F8D520E94540108950F931F9314
:1003D000CF93DF938A01E901882311F0662319F492
:1003E0000E94B30102C00E94C601C530D10571F45C
:1003F000C80160E177E20E945B08CB01C096909350
:100400002502809324020E948E0103C0C430D105CE
:10041000B9F4C80168EE73E00E945B08CB017093E9
:100420002702609326026AE070E00E945B08C09693
:1004300090933E0280933D020E948E0181E001C0B4
:1004400080E0C330D10511F08130B1F4C80164E619
:1004500070E00E945B08CB01709327026093260234
:100460006AE070E00E945B08C09690933602809329
:1004700035020E948E0181E0C230D10511F0813039
:10048000B1F42AE030E0C801B9010E945B08CB0159
:100490007093270260932602B9010E945B08C09600
:1004A0009093300280932F020E948E0181E0C13030
:1004B000D10511F0813061F4C8016AE070E00E945A
:1004C0005B08C09690933C0280933B020E948E0191
:1004D000C630D1051CF085E40E948E01DF91CF91DA
:1004E0001F910F91089581E00E945401089587B1F2
:1004F000876F87B988B1807888B90895ECEBF0E010
:10050000108280E18093B8001092B9001092BA0076
:1005100084E08083089594EA9093BC00ECEBF0E0D3
:1005200090819923ECF7EFEFFFE83197F1F700C0E6
:10053000000096EA9093BB0094E89093BC00ECEB2B
:10054000F0E090819923ECF7EFEFFFE83197F1F7B6
:1005500000C000006093BB0094E89093BC00ECEBFB
:10056000F0E090819923ECF7EFEFFFE83197F1F796
:1005700000C000008093BB0084E88093BC00ECEBDB
:10058000F0E080818823ECF78FEF9FE80197F1F787
:1005900000C0000084E98093BC00089594EA909321
:1005A000BC00ECEBF0E090819923ECF796EA909395
:1005B000BB0094E89093BC00ECEBF0E090819923B1
:1005C000ECF78093BB0084E88093BC00ECEBF0E098
:1005D00080818823ECF784EA8093BC00ECEBF0E0A8
:1005E00080818823ECF787EA8093BB0084E88093BE
:1005F000BC00ECEBF0E080818823ECF784E880938A
:10060000BC00ECEBF0E080818823ECF7EBEBF0E052
:100610008081108294E89093BC00ECEBF0E0908134
:100620009923ECF70895F8940E9477020E94110133
:100630000E9479010E947E0278940895EF92FF92C1
:100640000F931F93CF93DF93C82FD62F8A01790181
:100650005523A4F40E94C60180E092E00E94B701F5
:100660006D2F6F5FA801112324F444275527401BE9
:10067000510B8C2F97010E94E6010DC00E94C6010C
:1006800082E092E00E94B7016D2F6F5F8C2FA8016E
:1006900097010E94E601DF91CF911F910F91FF908A
:1006A000EF90089508950E94130380E06DE20E9488
:1006B0008B0288E06DE20E948B020895CF92DF9258
:1006C000EF92FF920F931F93CF93DF9382E30E94E9
:1006D000CE0283E30E94CE0284E30E94CE02082F62
:1006E00085E30E94CE02D82F86E30E94CE02C82F57
:1006F00087E30E94CE02C82E3D2F20E0802F90E09D
:10070000822B932B0E9452038C013C2D20E08C2FD6
:1007100090E0822B932B0E945203EC01B8018827B2
:1007200077FD8095982F0E9415076B017C01BE0113
:10073000882777FD8095982F0E9415079B01AC01B3
:10074000C701B6010E947A060E94520623EA3CE4E1
:1007500045E652E40E94D1070E94E206862F972FB9
:10076000DF91CF911F910F91FF90EF90DF90CF908D
:1007700008952F923F924F925F926F927F928F9245
:100780009F92AF92BF92CF92DF92EF92FF920F9320
:100790001F93CF93DF9300D00F92CDB7DEB70E94A7
:1007A000ED009C01B901882777FD8095982F0E9464
:1007B0001507B62EA72E982E892EC0903702D090FE
:1007C0003802E0903902F0903A02C701B6010B2DD1
:1007D0001A2D292D382DA90198010E94D1072091A9
:1007E00010023091110240911202509113020E94A6
:1007F000EE05362E072F282E192F862F902FA22D8B
:10080000B12F8093100290931102A0931202B09323
:10081000130280910C0290910D02A0910E02B091F2
:100820000F0289839A83AB83BC83C701B6012091F1
:100830003F023091400240914102509142020E9499
:10084000D1072B013C01832D902FA22DB12FBC018C
:10085000CD0120913102309132024091330250910A
:1008600034020E94D1079B01AC01C301B2010E9476
:10087000EE052B013C01C701B60129813A814B816C
:100880005C810E94ED050B2D1A2D292D382DA90113
:1008900098010E947A062091200230912102409115
:1008A0002202509123020E94D1079B01AC01C30197
:1008B000B2010E94EE05DC01CB0180932B029093E4
:1008C0002C02A0932D02B0932E0289819A81AB81D4
:1008D000BC818093080290930902A0930A02B0930E
:1008E0000B02C0920C02D0920D02E0920E02F09226
:1008F0000F0280911C0290911D02A0911E02B091E6
:100900001F028093180290931902A0931A02B093C9
:100910001B02802F912FA92DB82D80931C0290933C
:100920001D02A0931E02B0931F020F900F900F9014
:100930000F90DF91CF911F910F91FF90EF90DF907B
:10094000CF90BF90AF909F908F907F906F905F906F
:100950004F903F902F900895AAE0B1E08C91846E63
:100960008C93EBE0F1E08081887180838C918861C9
:100970008C9380818861808308950E94AC040895DF
:10098000E1E2F1E010828FEF8093250191E09093F6
:100990002401109229018093280110922B01809349
:1009A0002A0181EA80932001109222018DE0808348
:1009B0000895109229018093280110922B018C5FD9
:1009C00080932A010895EBE0F1E090819871892BE2
:1009D0008083089580EA0E94E304089584E40E94DD
:1009E000E304089584E80E94E304089580E60E94E9
:1009F000E304089580E80E94E304089580E20E94E1
:100A0000E304089580E40E94E304089584E00E94D2
:100A1000E304089580E00E94E3040895F8940E949E
:100A200077020E9411010E9479010E94BD040E9478
:100A3000C004789408958F929F92AF92BF92EF92E4
:100A4000FF920F931F934B015C01DA01C901809261
:100A50003F0290924002A0924102B09242028093E3
:100A6000310290933202A0933302B0933402E092A9
:100A70002002F092210200932202109323021F9180
:100A80000F91FF90EF90BF90AF909F908F9008953F
:100A90000E9453030E940E0560E070E08FE293E431
:100AA0002DEC3CEC4CEC5DE30F2EF0E0EF2EF0E48F
:100AB000FF2EFCE10F2FF6E41F2FF02D0E941B05E7
:100AC0000F2EF0E08F2EF0E09F2EF0E0AF2EF0E042
:100AD000BF2EF02D0E945E03EC01BE01882777FD3A
:100AE0008095982F0E941507609337027093380203
:100AF0008093390290933A020E94AC0889329105A2
:100B000041F48092370290923802A0923902B0925A
:100B10003A020E940A058FEF9FE80197F1F700C0A3
:100B200000000E94B903C0902B02D0902C02E090EC
:100B30002D02F0902E02C701B601A50194010E947A
:100B4000C6071816B4F4C701B60120E030E048EC3F
:100B500052E40E947A0620E030E040E951E40E942D
:100B6000EE050E94E706862F0E94D9040E94EA043F
:100B700015C0C701B60120E030E048EC52EC0E94FD
:100B80007A0620E030E040E951E40E94EE050E9440
:100B9000E706862F0E94D9040E94EE0482E090E0CE
:100BA00061E070E0AE0123E030E00E941E0360913E
:100BB0002B0270912C0280912D0290912E020E94A6
:100BC000E2068B019C0181E090E061E070E0A80109
:100BD00025E030E00E941E037DCF5058BB27AA2796
:100BE0000ED09AC18BD130F090D120F031F49F3FDC
:100BF00011F41EF45BC10EF4E095E7FB51C1E92F3F
:100C00009CD180F3BA17620773078407950718F021
:100C100071F49EF5B4C10EF4E0950B2EBA2FA02D01
:100C20000B01B90190010C01CA01A0011124FF2799
:100C3000591B99F0593F50F4503E68F11A16F04094
:100C4000A22F232F342F4427585FF3CF4695379593
:100C50002795A795F0405395C9F77EF41F16BA0B58
:100C6000620B730B840BBAF09150A1F0FF0FBB1F06
:100C7000661F771F881FC2F70EC0BA0F621F731F4F
:100C8000841F48F4879577956795B795F7959E3FAC
:100C900008F0B3CF9395880F08F09927EE0F97953A
:100CA00087950895DF93DD27B92FBF7740E85FE38D
:100CB0001616170648075B0710F4D92F6BD19F93C0
:100CC0008F937F936F93D0D1E4EEF0E0F2D024D1F4
:100CD0002F913F914F915F9170D1DD2349F0905852
:100CE000A2EA2AED3FE049EC5FE3D0785D2787DF99
:100CF000DF9112C10CD010C108D140F0FFD030F00C
:100D000021F45F3F19F0CCC051113AC1CFC015D1C9
:100D100098F39923C9F35523B1F3951B550BBB27C2
:100D2000AA2762177307840738F09F5F5F4F220F6F
:100D3000331F441FAA1FA9F333D00E2E3AF0E0E868
:100D400030D091505040E695001CCAF729D0FE2FB4
:100D500027D0660F771F881FBB1F26173707480746
:100D6000AB07B0E809F0BB0B802DBF01FF279358FC
:100D70005F4F2AF09E3F510568F092C001C15F3F6E
:100D8000ECF3983EDCF3869577956795B795F795E4
:100D90009F5FC9F7880F911D9695879597F90895DC
:100DA000E1E0660F771F881FBB1F62177307840778
:100DB000BA0720F0621B730B840BBA0BEE1F88F787
:100DC000E095089504D06894B111DAC00895BDD0BB
:100DD00088F09F5790F0B92F9927B751A0F0D1F024
:100DE000660F771F881F991F1AF0BA95C9F712C0AE
:100DF000B13081F0C4D0B1E00895C1C0672F782F21
:100E00008827B85F39F0B93FCCF386957795679519
:100E1000B395D9F73EF490958095709561957F4F85
:100E20008F4F9F4F0895E89409C097FB3EF490952B
:100E30008095709561957F4F8F4F9F4F9923A9F0B3
:100E4000F92F96E9BB279395F69587957795679542
:100E5000B795F111F8CFFAF4BB0F11F460FF1BC086
:100E60006F5F7F4F8F4F9F4F16C0882311F096E919
:100E700011C0772321F09EE8872F762F05C06623C7
:100E800071F096E8862F70E060E02AF09A95660F80
:100E9000771F881FDAF7880F9695879597F9089539
:100EA00097F99F6780E870E060E008959FEF80EC1D
:100EB0000895DF93CF931F930F93FF92EF92DF92EA
:100EC0007B018C01689405C0DA2EEF0176D0FE011B
:100ED000E894A5912591359145915591AEF3EF0197
:100EE0008EDEFE019701A801DA9479F7DF90EF908A
:100EF000FF900F911F91CF91DF91089500240A94E4
:100F00001616170618060906089500240A941216E4
:100F10001306140605060895092E0394000C11F417
:100F2000882352F0BB0F40F4BF2B11F460FF04C0C4
:100F30006F5F7F4F8F4F9F4F089557FD9058440F1D
:100F4000551F59F05F3F71F04795880F97FB991F28
:100F500061F09F3F79F087950895121613061406E5
:100F6000551FF2CF4695F1DF08C016161706180672
:100F7000991FF1CF86957105610508940895E8944D
:100F8000BB2766277727CB0197F9089570D008F41F
:100F90008FEF08959B01AC0160E070E080E89FE373
:100FA000A9CE0BD0B9CFAADF28F0AFDF18F0952378
:100FB00009F076CF7BCF1124E3CFBFDFA0F3959F5D
:100FC000D1F3950F50E0551F629FF001729FBB2730
:100FD000F00DB11D639FAA27F00DB11DAA1F649FDC
:100FE0006627B00DA11D661F829F2227B00DA11D8F
:100FF000621F739FB00DA11D621F839FA00D611D15
:10100000221F749F3327A00D611D231F849F600D35
:10101000211D822F762F6A2F11249F5750408AF06E
:10102000E1F088234AF0EE0FFF1FBB1F661F771FFA
:10103000881F91505040A9F79E3F510570F030CF66
:101040009FCF5F3FECF3983EDCF3869577956795ED
:10105000B795F795E7959F5FC1F7FE2B880F911D18
:101060009695879597F908959B01AC019ACF990FB2
:101070000008550FAA0BE0E8FEEF16161706E80762
:10108000F907C0F012161306E407F50798F0621B83
:10109000730B840B950B39F40A2661F0232B242B58
:1010A000252B21F408950A2609F4A140A6958FEF77
:1010B000811D811D0895AA1BBB1B51E107C0AA1FFA
:1010C000BB1FA617B70710F0A61BB70B881F991FE9
:1010D0005A95A9F780959095BC01CD01089597FB8D
:1010E000092E05260ED057FD04D014D00AD0001CBE
:1010F00038F450954095309521953F4F4F4F5F4FB5
:101100000895F6F790958095709561957F4F8F4F74
:101110009F4F0895A1E21A2EAA1BBB1BFD010DC013
:10112000AA1FBB1FEE1FFF1FA217B307E407F50797
:1011300020F0A21BB30BE40BF50B661F771F881F73
:10114000991F1A9469F760957095809590959B0109
:10115000AC01BD01CF0108959C0197FF03C03095FC
:0C11600021953F4FC9010895F894FFCF7E
:04116C002D002B0027
:00000001FF
