:100000000C9489000C94AA000C94AA000C94AA00E9
:100010000C94AA000C94AA000C94AA000C94AA00B8
:100020000C94AA000C94AA000C94AA000C94AA00A8
:100030000C94AA000C94AA000C94AA000C94AA0098
:100040000C94AA000C94AA000C94AA000C94AA0088
:100050000C94AA000C94AA000C94AA000C94AA0078
:100060000C94AA000C9445050C94AA000C94AA00C8
:100070000C94AA000C94AA000C94AA000C94AA0058
:100080000C94AA000C94AA000C94AA000C94AA0048
:100090000C94AA000C94AA000C94AA000C94AA0038
:1000A0000C94AA000C94AA000C94AA000C94AA0028
:1000B0000C94AA000C94CE000C94AA000C94AA00F4
:1000C0000C94AA000C94AA000C94AA000C94AA0008
:1000D0000C94AA000C94AA000C94AA000C94AA00F8
:1000E0000C94AA00084AD73B3BCE016E84BCBFFDEE
:1000F000C12F3D6C74319ABD56833DDA3D00C77FF8
:1001000011BED9E4BB4C3E916BAAAABE0000008090
:100110003F0011241FBECFEFD1E2DEBFCDBF00E014
:100120000CBF12E0A0E0B2E0EEE7F6E100E00BBFAA
:1001300002C007900D92A430B107D9F712E0A4E0F5
:10014000B2E001C01D92AE34B107E1F70E946D0725
:100150000C943D0B0C94000010923402E1EAF0E0A4
:10016000108286EC8093A50087E68093A40010920D
:10017000A9001092A8001092AB001092AA00109251
:10018000AD001092AC001092A7001092A600109241
:10019000A0001092A20081E0808308951F920F9228
:1001A0000FB60F9211248F93809134028F5F80934A
:1001B000340286EC8093A50087E68093A4008F919B
:1001C0000F900FBE0F901F901895F8940E94AC00EE
:1001D00081E080937200789408950F931F93CF93DA
:1001E000DF9310913402C091A400D091A5000E9429
:1001F000E500CE01A0E0B0E0BC01CD016756764C31
:100200008040904029E939E340E050E00E94000B33
:10021000DA01C901810F911DA11DB11D8C019D0144
:1002200048EE53E0049FC001059F900D149F900D70
:100230001124DF91CF911F910F9108951F93CF93B8
:10024000DF9310913402C091A400D091A5000E94C8
:10025000E500CE01A0E0B0E0BC01CD016756764CD0
:100260008040904029E939E340E050E00E94000BD3
:10027000812F90E0280F391F822F932FDF91CF918C
:100280001F91089586E69EE00197F1F700004098DF
:10029000419880E388B9429AEFEFF7E43197F1F79C
:1002A00000C000004298E6E6FEE03197F1F700005A
:1002B0004098419888B9429AEFEFF7E43197F1F707
:1002C00000C000004298E6E6FEE03197F1F700003A
:1002D0004098419888B9429A8FEF97E40197F1F7D7
:1002E00000C000004298E6E6FEE03197F1F700001A
:1002F0004098419880E288B9429A8FEF97E401973D
:10030000F1F700C000004298089598B19F7098B925
:1003100098B1282F207F922B98B940984198429A03
:10032000EFEFF7E43197F1F700C00000429898B181
:100330009F7098B998B18295807F892B88B9409831
:100340004198429A8FEF97E40197F1F700C00000BF
:100350004298089586E69EE00197F1F7000088E252
:100360000E94850181E00E94850186E00E9485014E
:100370008EE00E94850180E80E948501089598B171
:100380009F7098B998B1282F207F922B98B9409AE6
:100390004198429AEFEFF7E43197F1F700C000007F
:1003A000429898B19F7098B998B18295807F892BB7
:1003B00088B9409A4198429A8FEF97E40197F1F7F4
:1003C00000C000004298089580E80E9485010895C9
:1003D000CF93DF93EC018881882331F021960E942E
:1003E000BF0189918823D9F7DF91CF910895823099
:1003F00079F0833018F48130C9F405C0833069F096
:100400008430A1F40FC0862F81580E948501089581
:10041000862F81540E9485010895862F8D560E9453
:1004200085010895862F8D520E94850108950F93AE
:100430001F93CF93DF938A01E901882311F066238C
:1004400019F40E94E40102C00E94F701C530D105F1
:1004500071F4C80160E177E20E94EC0ACB01C0961A
:1004600090932F0280932E020E94BF0103C0C430DC
:10047000D105B9F4C80168EE73E00E94EC0ACB0123
:1004800070933102609330026AE070E00E94EC0ADF
:10049000C09690934902809348020E94BF0181E078
:1004A00001C080E0C330D10511F08130B1F4C80142
:1004B00064E670E00E94EC0ACB0170933102609315
:1004C00030026AE070E00E94EC0AC096909341020C
:1004D000809340020E94BF0181E0C230D10511F03B
:1004E0008130B1F42AE030E0C801B9010E94EC0A81
:1004F000CB017093310260933002B9010E94EC0A83
:10050000C09690933A02809339020E94BF0181E025
:10051000C130D10511F0813061F4C8016AE070E0AA
:100520000E94EC0AC09690934702809346020E9474
:10053000BF01C630D1051CF085E40E94BF01DF91E8
:10054000CF911F910F91089581E00E948501089538
:1005500087B1876F87B988B1807888B90895ECEB47
:10056000F0E0108280E18093B8001092B900109200
:10057000BA0084E08083089594EA9093BC00ECEB89
:10058000F0E090819923ECF7EFEFFFE83197F1F776
:1005900000C0000096EA9093BB0094E89093BC00E2
:1005A000ECEBF0E090819923ECF7EFEFFFE8319767
:1005B000F1F700C000006093BB0094E89093BC008A
:1005C000ECEBF0E090819923ECF7EFEFFFE8319747
:1005D000F1F700C000008093BB0084E88093BC006A
:1005E000ECEBF0E080818823ECF78FEF9FE8019738
:1005F000F1F700C0000084E98093BC00089594EAFC
:100600009093BC00ECEBF0E090819923ECF796EA34
:100610009093BB0094E89093BC00ECEBF0E09081E9
:100620009923ECF78093BB0084E88093BC00ECEB4B
:10063000F0E080818823ECF784EA8093BC00ECEB47
:10064000F0E080818823ECF787EA8093BB0084E8A0
:100650008093BC00ECEBF0E080818823ECF784E829
:100660008093BC00ECEBF0E080818823ECF7EBEBAF
:10067000F0E08081108294E89093BC00ECEBF0E015
:1006800090819923ECF70895F8940E94A8020E94A3
:1006900042010E94AA010E94AF0278940895EF924D
:1006A000FF920F931F93CF93DF93C82FD62F8A010A
:1006B00079015523A4F40E94F70180E092E00E94A2
:1006C000E8016D2F6F5FA801112324F444275527FB
:1006D000401B510B8C2F97010E9417020DC00E94E6
:1006E000F70182E092E00E94E8016D2F6F5F8C2F8E
:1006F000A80197010E941702DF91CF911F910F91DE
:10070000FF90EF90089508950E94440380E06DE209
:100710000E94BC0288E06DE20E94BC020895CF9264
:10072000DF92EF92FF920F931F93CF93DF9382E3B9
:100730000E94FF0283E30E94FF0284E30E94FF0203
:10074000082F85E30E94FF02D82F86E30E94FF0254
:10075000C82F87E30E94FF02C82E3D2F20E0802F84
:1007600090E0822B932B0E9483038C013C2D20E090
:100770008C2F90E0822B932B0E948303EC01B80115
:10078000882777FD8095982F0E94A6096B017C0130
:10079000BE01882777FD8095982F0E94A6099B01AE
:1007A000AC01C701B6010E940B090E94DF0826EECA
:1007B0003FE44FE054E40E94860A0E947309862FAA
:1007C000972FDF91CF911F910F91FF90EF90DF90C6
:1007D000CF9008958F929F92AF92BF92CF92DF9267
:1007E000EF92FF92CF93DF936091420270914302A8
:1007F0008091440290914502609304027093050237
:1008000080930602909307022091160230911702FE
:1008100040911802509119020E947B082091120207
:100820003091130240911402509115020E947B08EE
:1008300020910E0230910F0240911002509111024E
:100840000E947B0820911A0230911B0240911C02E9
:1008500050911D020E947B08862EC72ED82FC92FCB
:10086000862F9C2DAD2FBC2F80931A0290931B02D4
:10087000A0931C02B0931D02BC01CD0120E030E02A
:100880004FE753E40E947B0A88236CF080E090E0FD
:10089000AFE7B3E480931A0290931B02A0931C026B
:1008A000B0931D021AC0882D9C2DAD2FBC2FBC010A
:1008B000CD0120E030E04FE753EC0E940709181605
:1008C00064F080E090E0AFE7B3EC80931A0290937D
:1008D0001B02A0931C02B0931D02C0900402D09092
:1008E0000502E0900602F0900702C701B6012091D0
:1008F0004A0230914B0240914C0250914D020E94AD
:10090000860A4B015C0160913B0270913C02809130
:100910003D0290913E0220911A0230911B024091BB
:100920001C0250911D020E94860A9B01AC01C50168
:10093000B4010E947B084B015C01C701B601209104
:1009400016023091170240911802509119020E942C
:100950007A0820912A0230912B0240912C0250916A
:100960002D020E94860A9B01AC01C501B4010E94C0
:100970007B08D62FC72F882EC92E862F9C2FA82DF7
:10098000BC2D8093350290933602A0933702B0932A
:100990003802BC01CD0120E030E04CE553E40E9478
:1009A0007B0A88236CF080E090E0ACE5B3E48093B0
:1009B000350290933602A0933702B09338021AC0E2
:1009C0008D2F9C2FA82DBC2DBC01CD0120E030E047
:1009D0004CE553EC0E940709181664F080E090E0A3
:1009E000ACE5B3EC8093350290933602A0933702C6
:1009F000B09338028091120290911302A0911402D8
:100A0000B091150280930E0290930F02A0931002F2
:100A1000B09311028091160290911702A0911802D2
:100A2000B09119028093120290931302A0931402C2
:100A3000B09315028091040290910502A0910602E4
:100A4000B09107028093160290931702A0931802A8
:100A5000B0931902DF91CF91FF90EF90DF90CF908C
:100A6000BF90AF909F908F900895E1ECF0E01082DE
:100A70001092C00086E08093C2008FE58093C4008E
:100A80001092C50088E9808308951F920F920FB6D7
:100A90000F920BB60F9211240F931F932F933F9336
:100AA0004F935F936F937F938F939F93AF93BF9376
:100AB000EF93FF938091C60080933F028733B9F490
:100AC00080914A0290914B02A0914C02B0914D024C
:100AD00080930A0290930B02A0930C02B0930D0234
:100AE00081E090E0909309028093080231C088333E
:100AF000B9F480913B0290913C02A0913D02B091EB
:100B00003E0280930A0290930B02A0930C02B093D2
:100B10000D0282E090E0909309028093080218C0D1
:100B20008933B1F480912A0290912B02A0912C027A
:100B3000B0912D0280930A0290930B02A0930C02B5
:100B4000B0930D0283E090E0909309028093080235
:100B500080913F028133C9F460910A0270910B02C7
:100B600080910C0290910D0220E030E040E85FE3BC
:100B70000E947B08DC01CB0180930A0290930B0258
:100B8000A0930C02B0930D0286C08233C9F4609129
:100B90000A0270910B0280910C0290910D0220E0EC
:100BA00030E040EA50E40E947B08DC01CB018093F6
:100BB0000A0290930B02A0930C02B0930D026BC03B
:100BC0008433C9F460910A0270910B0280910C0287
:100BD00090910D0220E030E040E85FE30E947A0847
:100BE000DC01CB0180930A0290930B02A0930C02CC
:100BF000B0930D0250C08533C9F460910A02709120
:100C00000B0280910C0290910D0220E030E040EA4E
:100C100050E40E947A08DC01CB0180930A02909391
:100C20000B02A0930C02B0930D0235C08333C9F4BC
:100C300060910A0270910B0280910C0290910D025A
:100C40002DEC3CEC4CEC5DE30E947B08DC01CB011D
:100C500080930A0290930B02A0930C02B0930D02B2
:100C60001AC08633C1F460910A0270910B02809120
:100C70000C0290910D022DEC3CEC4CEC5DE30E94DB
:100C80007A08DC01CB0180930A0290930B02A093B7
:100C90000C02B0930D0280910802909109028130FC
:100CA000910511F560910A0270910B0280910C027E
:100CB00090910D0260934A0270934B0280934C0214
:100CC00090934D0220E030E040E251E40E94860A19
:100CD0000E9478098B019C0181E061E0A80124E079
:100CE00030E00E94170249C08230910511F56091F1
:100CF0000A0270910B0280910C0290910D02609398
:100D00003B0270933C0280933D0290933E0220E0B0
:100D100030E040E251E40E94860A0E9478098B018B
:100D20009C0181E066E0A80124E030E00E94170207
:100D300024C08330910509F560910A0270910B027D
:100D400080910C0290910D0260932A0270932B0205
:100D500080932C0290932D0220E030E040E251E499
:100D60000E94860A0E9478098B019C0181E06BE059
:100D7000A80124E030E00E941702FF91EF91BF919B
:100D8000AF919F918F917F916F915F914F913F9123
:100D90002F911F910F910F900BBE0F900FBE0F90D0
:100DA0001F901895AAE0B1E08C91846E8C93EBE0D3
:100DB000F1E08081887180838C9188618C9380813F
:100DC0008861808308950E94D2060895E1E2F1E0EF
:100DD00010828FEF8093250191E09093240110926F
:100DE00029018093280110922B0180932A0181EA26
:100DF00080932001109222018DE08083089510924B
:100E000029018093280110922B0180932A010895D3
:100E1000EBE0F1E090819871892B8083089580EA5E
:100E20000E940807089584E40E940807089584E852
:100E30000E940807089580E60E940807089580E848
:100E40000E940807089580E20E940807089580E440
:100E50000E940807089584E00E940807089580E032
:100E60000E9408070895F8940E94A8020E94420177
:100E70000E94AA010E94E3060E94E6067894089563
:100E80008F929F92AF92BF92EF92FF920F931F9318
:100E90004B015C01DA01C90180924A0290924B0237
:100EA000A0924C02B0924D0280933B0290933C0280
:100EB000A0933D02B0933E02E0922A02F0922B02F0
:100EC00000932C0210932D021F910F91FF90EF9031
:100ED000BF90AF909F908F9008950E9484030E94CE
:100EE00033070E94350560E070E080E490E420E084
:100EF00030E0A90179018A010E94400760914A020D
:100F000070914B0280914C0290914D0220E030E0B4
:100F100040E251E40E94860A0E9478098B019C01FC
:100F200081E061E0A80124E030E00E9417026091B6
:100F30003B0270913C0280913D0290913E0220E084
:100F400030E040E251E40E94860A0E9478098B0159
:100F50009C0181E066E0A80124E030E00E941702D5
:100F600060912A0270912B0280912C0290912D02A7
:100F700020E030E040E251E40E94860A0E947809B5
:100F80008B019C0181E06BE0A80124E030E00E942D
:100F90001702CFEFD0E00E948F039C01B901882790
:100FA00077FD8095982F0E94A6092DEC3CEC4CEC27
:100FB0005DE30E94860A0E947309882777FD809569
:100FC000982F0E94A609DC01CB01809342029093E6
:100FD0004302A0934402B0934502609104027091D1
:100FE000050280910602909107022091160230912D
:100FF000170240911802509119020E94860A20E0BF
:1010000030E0A9010E940709882344F40E942F07B9
:101010008FEF9FE80197F1F700C000000E94EA03FC
:10102000C0903502D0903602E0903702F09038023E
:10103000C701B60120E030E0A9010E947B0A181622
:10104000DCF4C701B60120E030E040EF51E40E943B
:101050007B080E947809DC01CB018F3F910508F0E5
:10106000CE010E94FF060E940F07AFEFBFE8119765
:10107000F1F700C0000035C0C701B60120E030E044
:10108000A9010E9407098823DCF460E070E080EF8A
:1010900091E4A70196010E947A080E947809DC0178
:1010A000CB018F3F910508F0CE010E94FF060E9400
:1010B00013078FEF9FE80197F1F700C0000011C000
:1010C000C701B60120E030E0A9010E94070988238A
:1010D00041F40E942F07AFEFBFE81197F1F700C06E
:1010E00000008CEC9CECA1E081509040A040E1F726
:1010F00000C051CF5058BB27AA270ED0C2C1B3D1D0
:1011000030F0B8D120F031F49F3F11F41EF483C1C8
:101110000EF4E095E7FB79C1E92FC4D180F3BA174B
:10112000620773078407950718F071F49EF5DCC118
:101130000EF4E0950B2EBA2FA02D0B01B9019001F2
:101140000C01CA01A0011124FF27591B99F0593F36
:1011500050F4503E68F11A16F040A22F232F342F7E
:101160004427585FF3CF469537952795A795F040CC
:101170005395C9F77EF41F16BA0B620B730B840BE1
:10118000BAF09150A1F0FF0FBB1F661F771F881F99
:10119000C2F70EC0BA0F621F731F841F48F48795F1
:1011A00077956795B795F7959E3F08F0B3CF9395E0
:1011B000880F08F09927EE0F979587950895DF938C
:1011C000DD27B92FBF7740E85FE3161617064807FB
:1011D0005B0710F4D92F93D19F938F937F936F93D5
:1011E000F8D1E4EEF0E01AD14CD12F913F914F911C
:1011F0005F9198D1DD2349F09058A2EA2AED3FE0B3
:1012000049EC5FE3D0785D2787DFDF913AC1D9D021
:1012100008F481E008950CD034C12CD140F023D1E2
:1012200030F021F45F3F19F0F0C051115EC1F3C0FE
:1012300039D198F39923C9F35523B1F3951B550B75
:10124000BB27AA2762177307840738F09F5F5F4F99
:10125000220F331F441FAA1FA9F333D00E2E3AF0DA
:10126000E0E830D091505040E695001CCAF729D0F4
:10127000FE2F27D0660F771F881FBB1F2617370743
:101280004807AB07B0E809F0BB0B802DBF01FF2773
:1012900093585F4F2AF09E3F510568F0B6C025C1B4
:1012A0005F3FECF3983EDCF3869577956795B795AD
:1012B000F7959F5FC9F7880F911D9695879597F9C8
:1012C0000895E1E0660F771F881FBB1F6217730741
:1012D0008407BA0720F0621B730B840BBA0BEE1F56
:1012E00088F7E095089504D06894B111FEC0089580
:1012F000E1D088F09F5790F0B92F9927B751A0F00F
:10130000D1F0660F771F881F991F1AF0BA95C9F799
:1013100012C0B13081F0E8D0B1E00895E5C0672F88
:10132000782F8827B85F39F0B93FCCF38695779549
:101330006795B395D9F73EF4909580957095619532
:101340007F4F8F4F9F4F0895E89409C097FB3EF45D
:1013500090958095709561957F4F8F4F9F4F992302
:10136000A9F0F92F96E9BB279395F6958795779580
:101370006795B795F111F8CFFAF4BB0F11F460FF40
:101380001BC06F5F7F4F8F4F9F4F16C0882311F098
:1013900096E911C0772321F09EE8872F762F05C0AC
:1013A000662371F096E8862F70E060E02AF09A9547
:1013B000660F771F881FDAF7880F9695879597F93C
:1013C0000895990F0008550FAA0BE0E8FEEF1616D6
:1013D0001706E807F907C0F012161306E407F50729
:1013E00098F0621B730B840B950B39F40A2661F09D
:1013F000232B242B252B21F408950A2609F4A14040
:10140000A6958FEF811D811D089597F99F6780E84C
:1014100070E060E008959FEF80EC0895DF93CF9334
:101420001F930F93FF92EF92DF927B018C016894E0
:1014300005C0DA2EEF0176D0FE01E894A591259142
:10144000359145915591AEF3EF0166DEFE019701AE
:10145000A801DA9479F7DF90EF90FF900F911F9138
:10146000CF91DF91089500240A94161617061806E6
:101470000906089500240A94121613061406050698
:101480000895092E0394000C11F4882352F0BB0F29
:1014900040F4BF2B11F460FF04C06F5F7F4F8F4F8C
:1014A0009F4F089557FD9058440F551F59F05F3FC7
:1014B00071F04795880F97FB991F61F09F3F79F076
:1014C00087950895121613061406551FF2CF4695F8
:1014D000F1DF08C0161617061806991FF1CF86957A
:1014E0007105610508940895E894BB27662777275E
:1014F000CB0197F9089565DF08F48FEF08959B01FC
:10150000AC0160E070E080E89FE385CE0BD0B9CFFE
:10151000AADF28F0AFDF18F0952309F076CF7BCF54
:101520001124E3CFBFDFA0F3959FD1F3950F50E0D7
:10153000551F629FF001729FBB27F00DB11D639F85
:10154000AA27F00DB11DAA1F649F6627B00DA11D2B
:10155000661F829F2227B00DA11D621F739FB00DD1
:10156000A11D621F839FA00D611D221F749F332741
:10157000A00D611D231F849F600D211D822F762FDA
:101580006A2F11249F5750408AF0E1F088234AF0D7
:10159000EE0FFF1FBB1F661F771F881F9150504023
:1015A000A9F79E3F510570F030CF9FCF5F3FECF31E
:1015B000983EDCF3869577956795B795F795E7950F
:1015C0009F5FC1F7FE2B880F911D9695879597F920
:1015D00008959B01AC019ACFAA1BBB1B51E107C028
:1015E000AA1FBB1FA617B70710F0A61BB70B881FB3
:1015F000991F5A95A9F780959095BC01CD01089542
:1016000097FB092E05260ED057FD04D014D00AD022
:10161000001C38F450954095309521953F4F4F4F21
:101620005F4F0895F6F790958095709561957F4F7F
:101630008F4F9F4F0895A1E21A2EAA1BBB1BFD01DD
:101640000DC0AA1FBB1FEE1FFF1FA217B307E407A1
:10165000F50720F0A21BB30BE40BF50B661F771FF9
:10166000881F991F1A9469F76095709580959095D9
:0E1670009B01AC01BD01CF010895F894FFCF9E
:04167E002D002B0010
:00000001FF
