:100000000C9489000C94AA000C94AA000C94AA00E9
:100010000C94AA000C94AA000C94AA000C94AA00B8
:100020000C94AA000C94AA000C94AA000C94AA00A8
:100030000C94AA000C94AA000C94AA000C94AA0098
:100040000C94AA000C94AA000C94AA000C94AA0088
:100050000C94AA000C94AA000C94AA000C94AA0078
:100060000C94AA000C94FA040C94AA000C94AA0014
:100070000C94AA000C94AA000C94AA000C94AA0058
:100080000C94AA000C94AA000C94AA000C94AA0048
:100090000C94AA000C94AA000C94AA000C94AA0038
:1000A0000C94AA000C94AA000C94AA000C94AA0028
:1000B0000C94AA000C94CE000C94AA000C94AA00F4
:1000C0000C94AA000C94AA000C94AA000C94AA0008
:1000D0000C94AA000C94AA000C94AA000C94AA00F8
:1000E0000C94AA00084AD73B3BCE016E84BCBFFDEE
:1000F000C12F3D6C74319ABD56833DDA3D00C77FF8
:1001000011BED9E4BB4C3E916BAAAABE0000008090
:100110003F0011241FBECFEFD1E2DEBFCDBF00E014
:100120000CBF12E0A0E0B2E0E6E9F5E100E00BBFB1
:1001300002C007900D92AC30B107D9F712E0ACE0E5
:10014000B2E001C01D92A635B107E1F70E94380761
:100150000C94C90A0C94000010923C02E1EAF0E011
:10016000108286EC8093A50087E68093A40010920D
:10017000A9001092A8001092AB001092AA00109251
:10018000AD001092AC001092A7001092A600109241
:10019000A0001092A20081E0808308951F920F9228
:1001A0000FB60F9211248F9380913C028F5F809342
:1001B0003C0286EC8093A50087E68093A4008F9193
:1001C0000F900FBE0F901F901895F8940E94AC00EE
:1001D00081E080937200789408951F93CF93DF930A
:1001E00010913C02C091A400D091A5000E94E500AE
:1001F000CE01A0E0B0E0BC01CD016756764C804056
:10020000904029E939E340E050E00E948C0A812FB8
:1002100090E0280F391F822F932FDF91CF911F91EC
:10022000089586E69EE00197F1F700004098419816
:1002300080E388B9429AEFEFF7E43197F1F700C015
:1002400000004298E6E6FEE03197F1F700004098A2
:10025000419888B9429AEFEFF7E43197F1F700C07F
:1002600000004298E6E6FEE03197F1F70000409882
:10027000419888B9429A8FEF97E40197F1F700C04F
:1002800000004298E6E6FEE03197F1F70000409862
:10029000419880E288B9429A8FEF97E40197F1F78D
:1002A00000C000004298089598B19F7098B998B125
:1002B000282F207F922B98B940984198429AEFEFCF
:1002C000F7E43197F1F700C00000429898B19F70B1
:1002D00098B998B18295807F892B88B940984198C8
:1002E000429A8FEF97E40197F1F700C0000042981F
:1002F000089586E69EE00197F1F7000088E20E94EB
:10030000540181E00E94540186E00E9454018EE075
:100310000E94540180E80E945401089598B19F7092
:1003200098B998B1282F207F922B98B9409A41987C
:10033000429AEFEFF7E43197F1F700C000004298DE
:1003400098B19F7098B998B18295807F892B88B9B0
:10035000409A4198429A8FEF97E40197F1F700C0D5
:1003600000004298089580E80E9454010895CF93B8
:10037000DF93EC018881882331F021960E948E0161
:1003800089918823D9F7DF91CF910895823079F050
:10039000833018F48130C9F405C0833069F08430AB
:1003A000A1F40FC0862F81580E9454010895862F12
:1003B00081540E9454010895862F8D560E94540145
:1003C0000895862F8D520E94540108950F931F9314
:1003D000CF93DF938A01E901882311F0662319F492
:1003E0000E94B30102C00E94C601C530D10571F45C
:1003F000C80160E177E20E94780ACB01C096909331
:100400003702809336020E948E0103C0C430D105AA
:10041000B9F4C80168EE73E00E94780ACB017093CA
:100420003902609338026AE070E00E94780AC09650
:1004300090935102809350020E948E0181E001C08E
:1004400080E0C330D10511F08130B1F4C80164E619
:1004500070E00E94780ACB017093390260933802F1
:100460006AE070E00E94780AC096909349028093F7
:1004700048020E948E0181E0C230D10511F0813026
:10048000B1F42AE030E0C801B9010E94780ACB013A
:100490007093390260933802B9010E94780AC096BD
:1004A00090934202809341020E948E0181E0C1300C
:1004B000D10511F0813061F4C8016AE070E00E945A
:1004C000780AC09690934F0280934E020E948E014C
:1004D000C630D1051CF085E40E948E01DF91CF91DA
:1004E0001F910F91089581E00E945401089587B1F2
:1004F000876F87B988B1807888B90895ECEBF0E010
:10050000108280E18093B8001092B9001092BA0076
:1005100084E08083089594EA9093BC00ECEBF0E0D3
:1005200090819923ECF7EFEFFFE83197F1F700C0E6
:10053000000096EA9093BB0094E89093BC00ECEB2B
:10054000F0E090819923ECF7EFEFFFE83197F1F7B6
:1005500000C000006093BB0094E89093BC00ECEBFB
:10056000F0E090819923ECF7EFEFFFE83197F1F796
:1005700000C000008093BB0084E88093BC00ECEBDB
:10058000F0E080818823ECF78FEF9FE80197F1F787
:1005900000C0000084E98093BC00089594EA909321
:1005A000BC00ECEBF0E090819923ECF796EA909395
:1005B000BB0094E89093BC00ECEBF0E090819923B1
:1005C000ECF78093BB0084E88093BC00ECEBF0E098
:1005D00080818823ECF784EA8093BC00ECEBF0E0A8
:1005E00080818823ECF787EA8093BB0084E88093BE
:1005F000BC00ECEBF0E080818823ECF784E880938A
:10060000BC00ECEBF0E080818823ECF7EBEBF0E052
:100610008081108294E89093BC00ECEBF0E0908134
:100620009923ECF70895F8940E9477020E94110133
:100630000E9479010E947E0278940895EF92FF92C1
:100640000F931F93CF93DF93C82FD62F8A01790181
:100650005523A4F40E94C60180E092E00E94B701F5
:100660006D2F6F5FA801112324F444275527401BE9
:10067000510B8C2F97010E94E6010DC00E94C6010C
:1006800082E092E00E94B7016D2F6F5F8C2FA8016E
:1006900097010E94E601DF91CF911F910F91FF908A
:1006A000EF90089508950E94130380E06DE20E9488
:1006B0008B0288E06DE20E948B020895CF92DF9258
:1006C000EF92FF920F931F93CF93DF9382E30E94E9
:1006D000CE0283E30E94CE0284E30E94CE02082F62
:1006E00085E30E94CE02D82F86E30E94CE02C82F57
:1006F00087E30E94CE02C82E3D2F20E0802F90E09D
:10070000822B932B0E9452038C013C2D20E08C2FD6
:1007100090E0822B932B0E945203EC01B8018827B2
:1007200077FD8095982F0E9432096B017C01BE01F4
:10073000882777FD8095982F0E9432099B01AC0194
:10074000C701B6010E9497080E946B0823EA3CE4A7
:1007500045E652E40E94120A0E94FF08862F972F56
:10076000DF91CF911F910F91FF90EF90DF90CF908D
:1007700008954F925F926F927F928F929F92AF9265
:10078000BF92CF92DF92EF92FF920F931F93CF937E
:10079000DF9300D00F92CDB7DEB70E94ED009C0131
:1007A000B901882777FD8095982F0E943209962EEF
:1007B000872EB82EA92E20914A0230914B024091EB
:1007C0004C0250914D0220930C0230930D02409345
:1007D0000E0250930F02782F892D982DA72FBA2D36
:1007E000BC01CD010E94120A209122023091230205
:1007F00040912402509125020E940708F62E172FDF
:10080000C82E092F862F912FAC2DB02F8093220256
:1008100090932302A0932402B0932502BC01CD0142
:1008200020E030E04FE753E40E94070A88236CF091
:1008300080E090E0AFE7B3E480932202909323023C
:10084000A0932402B09325021AC08F2D912FAC2DB6
:10085000B02FBC01CD0120E030E04FE753EC0E9407
:100860009308181664F080E090E0AFE7B3EC809353
:10087000220290932302A0932402B0932502C090F9
:100880000C02D0900D02E0900E02F0900F028091C9
:100890001E0290911F02A0912002B0912102898333
:1008A0009A83AB83BC83C701B60120915202309179
:1008B000530240915402509155020E94120A2B019A
:1008C0003C016091430270914402809145029091F5
:1008D000460220912202309123024091240250913D
:1008E00025020E94120A9B01AC01C301B2010E94C1
:1008F00007082B013C01C701B60129813A814B81D0
:100900005C810E940608092D182D2B2D3A2DA90176
:1009100098010E9497082091320230913302409151
:100920003402509135020E94120A9B01AC01C301AE
:10093000B2010E940708DC01CB0180933D02909335
:100940003E02A0933F02B093400289819A81AB811D
:10095000BC8180931A0290931B02A0931C02B09357
:100960001D02C0921E02D0921F02E0922002F0925D
:10097000210280912E0290912F02A0913002B0911D
:10098000310280932A0290932B02A0932C02B09301
:100990002D02802F912FAB2DBA2D80932E02909394
:1009A0002F02A0933002B09331020F900F900F905E
:1009B0000F90DF91CF911F910F91FF90EF90DF90FB
:1009C000CF90BF90AF909F908F907F906F905F90EF
:1009D0004F900895E1ECF0E010821092C00086E0A4
:1009E0008093C2008FE58093C4001092C50088E90F
:1009F000808308951F920F920FB60F920BB60F923D
:100A000011240F931F932F933F934F935F936F93F3
:100A10007F938F939F93AF93BF93EF93FF938091B7
:100A2000C600809347028733B9F4809152029091B7
:100A30005302A0915402B0915502809312029093F8
:100A40001302A0931402B093150281E090E09093FA
:100A500011028093100231C08833B9F480914302AF
:100A600090914402A0914502B091460280931202F7
:100A700090931302A0931402B093150282E090E0C9
:100A8000909311028093100218C08933B1F48091C1
:100A9000320290913302A0913402B09135028093DA
:100AA000120290931302A0931402B093150283E0F4
:100AB00090E090931102809310028091470281335D
:100AC000C9F4609112027091130280911402909106
:100AD000150220E030E040E85FE30E940708DC01F7
:100AE000CB018093120290931302A0931402B0934F
:100AF000150286C08233C9F460911202709113020C
:100B0000809114029091150220E030E040EA50E418
:100B10000E940708DC01CB0180931202909313021C
:100B2000A0931402B09315026BC08433C9F4609192
:100B3000120270911302809114029091150220E02C
:100B400030E040E85FE30E940608DC01CB018093BF
:100B5000120290931302A0931402B093150250C096
:100B60008533C9F4609112027091130280911402CE
:100B70009091150220E030E040EA50E40E9406081F
:100B8000DC01CB018093120290931302A093140214
:100B9000B093150235C08333C9F46091120270918D
:100BA000130280911402909115022DEC3CEC4CEC58
:100BB0005DE30E940708DC01CB0180931202909351
:100BC0001302A0931402B09315021AC08633C1F425
:100BD000609112027091130280911402909115029B
:100BE0002DEC3CEC4CEC5DE30E940608DC01CB01F3
:100BF0008093120290931302A0931402B0931502F3
:100C000080911002909111028130910511F560914F
:100C10001202709113028091140290911502609358
:100C2000520270935302809354029093550220E035
:100C300030E040E251E40E94120A0E9404098B0154
:100C40009C0181E061E0A80124E030E00E94E6011F
:100C500049C08230910511F5609112027091130222
:100C600080911402909115026093430270934402A4
:100C7000809345029093460220E030E040E251E448
:100C80000E94120A0E9404098B019C0181E066E027
:100C9000A80124E030E00E94E60124C083309105E1
:100CA00009F56091120270911302809114029091E3
:100CB0001502609332027093330280933402909352
:100CC000350220E030E040E251E40E94120A0E9426
:100CD00004098B019C0181E06BE0A80124E030E075
:100CE0000E94E601FF91EF91BF91AF919F918F918B
:100CF0007F916F915F914F913F912F911F910F9134
:100D00000F900BBE0F900FBE0F901F901895AAE08A
:100D1000B1E08C91846E8C93EBE0F1E0808188717E
:100D200080838C9188618C93808188618083089511
:100D30000E9487060895E1E2F1E010828FEF809330
:100D4000250191E0909324011092290180932801BC
:100D500010922B0180932A0181EA80932001109246
:100D600022018DE08083089510922901809328014B
:100D700010922B0180932A010895EBE0F1E090811D
:100D80009871892B8083089580EA0E94BD0608959A
:100D900084E40E94BD06089584E80E94BD0608957B
:100DA00080E60E94BD06089580E80E94BD06089571
:100DB00080E20E94BD06089580E40E94BD06089569
:100DC00084E00E94BD06089580E00E94BD0608955B
:100DD000F8940E9477020E9411010E9479010E94FA
:100DE00098060E949B06789408950F931F93DC0148
:100DF000CB01022F132F242F352F80179107A20725
:100E0000B30710F48C019D01602F712F822F932F57
:100E10001F910F9108958F929F92AF92BF92EF9280
:100E2000FF920F931F934B015C01DA01C90180927D
:100E3000520290925302A0925402B09255028093B3
:100E4000430290934402A0934502B0934602E0927D
:100E50003202F092330200933402109335021F9154
:100E60000F91FF90EF90BF90AF909F908F9008955B
:100E70000E9453030E94E8060E94EA040E94E500D3
:100E800060E070E088EC92E420E030E0A9017901B4
:100E90008A010E940B076091520270915302809167
:100EA00054029091550220E030E040E251E40E946B
:100EB000120A0E9404098B019C0181E061E0A801F3
:100EC00024E030E00E94E601609143027091440208
:100ED000809145029091460220E030E040E251E4EA
:100EE0000E94120A0E9404098B019C0181E066E0C5
:100EF000A80124E030E00E94E60160913202709186
:100F00003302809134029091350220E030E040E2DB
:100F100051E40E94120A0E9404098B019C0181E0A5
:100F20006BE0A80124E030E00E94E6010E945E032D
:100F30009C01B901882777FD8095982F0E9432097E
:100F4000DC01CB0180934A0290934B02A0934C02A8
:100F5000B0934D0260910C0270910D0280910E02CF
:100F600090910F0220911E0230911F0240912002A9
:100F7000509121020E94120A20E030E0A9010E9453
:100F80009308882344F40E94E4068FEF9FE80197BA
:100F9000F1F700C000000E94B903C0903D02D0905C
:100FA0003E02E0903F02F0904002C701B60120E00F
:100FB00030E0A9010E94070A1816A4F4C701B6017F
:100FC000A70196010E94120A0E9404092FEF30E047
:100FD00040E050E00E94F506862F0E94B4060E9471
:100FE000C406A4CFC701B601A70196010E94120A48
:100FF0000E9404092FEF30E040E050E00E94F50627
:10100000862F0E94B4060E94C80690CF5058BB2776
:10101000AA270ED0C2C1B3D130F0B8D120F031F43C
:101020009F3F11F41EF483C10EF4E095E7FB79C1F4
:10103000E92FC4D180F3BA176207730784079507B5
:1010400018F071F49EF5DCC10EF4E0950B2EBA2F6A
:10105000A02D0B01B90190010C01CA01A0011124BE
:10106000FF27591B99F0593F50F4503E68F11A166A
:10107000F040A22F232F342F4427585FF3CF4695FB
:1010800037952795A795F0405395C9F77EF41F161D
:10109000BA0B620B730B840BBAF09150A1F0FF0FE7
:1010A000BB1F661F771F881FC2F70EC0BA0F621FD3
:1010B000731F841F48F4879577956795B795F795C3
:1010C0009E3F08F0B3CF9395880F08F09927EE0F55
:1010D000979587950895DF93DD27B92FBF7740E86F
:1010E0005FE31616170648075B0710F4D92F93D154
:1010F0009F938F937F936F93F8D1E4EEF0E01AD132
:101100004CD12F913F914F915F9198D1DD2349F0C0
:101110009058A2EA2AED3FE049EC5FE3D0785D27E2
:1011200087DFDF913AC1D9D008F481E008950CD06F
:1011300034C12CD140F023D130F021F45F3F19F0BD
:10114000F0C051115EC1F3C039D198F39923C9F3AE
:101150005523B1F3951B550BBB27AA2762177307BD
:10116000840738F09F5F5F4F220F331F441FAA1F71
:10117000A9F333D00E2E3AF0E0E830D09150504031
:10118000E695001CCAF729D0FE2F27D0660F771FDF
:10119000881FBB1F261737074807AB07B0E809F0C1
:1011A000BB0B802DBF01FF2793585F4F2AF09E3F56
:1011B000510568F0B6C025C15F3FECF3983EDCF303
:1011C000869577956795B795F7959F5FC9F7880FCF
:1011D000911D9695879597F90895E1E0660F771F21
:1011E000881FBB1F621773078407BA0720F0621BB2
:1011F000730B840BBA0BEE1F88F7E095089504D0AB
:101200006894B111FEC00895E1D088F09F5790F026
:10121000B92F9927B751A0F0D1F0660F771F881F1B
:10122000991F1AF0BA95C9F712C0B13081F0E8D011
:10123000B1E00895E5C0672F782F8827B85F39F0AF
:10124000B93FCCF3869577956795B395D9F73EF47A
:1012500090958095709561957F4F8F4F9F4F089522
:10126000E89409C097FB3EF4909580957095619540
:101270007F4F8F4F9F4F9923A9F0F92F96E9BB27F6
:101280009395F695879577956795B795F111F8CF72
:10129000FAF4BB0F11F460FF1BC06F5F7F4F8F4FDD
:1012A0009F4F16C0882311F096E911C0772321F0D3
:1012B0009EE8872F762F05C0662371F096E8862F6B
:1012C00070E060E02AF09A95660F771F881FDAF7C2
:1012D000880F9695879597F90895990F0008550FEF
:1012E000AA0BE0E8FEEF16161706E807F907C0F0AC
:1012F00012161306E407F50798F0621B730B840BB4
:10130000950B39F40A2661F0232B242B252B21F48D
:1013100008950A2609F4A140A6958FEF811D811D2D
:10132000089597F99F6780E870E060E008959FEF67
:1013300080EC0895DF93CF931F930F93FF92EF926A
:10134000DF927B018C01689405C0DA2EEF0176D024
:10135000FE01E894A5912591359145915591AEF303
:10136000EF0166DEFE019701A801DA9479F7DF90BC
:10137000EF90FF900F911F91CF91DF91089500247E
:101380000A941616170618060906089500240A94EA
:1013900012161306140605060895092E0394000C70
:1013A00011F4882352F0BB0F40F4BF2B11F460FFFF
:1013B00004C06F5F7F4F8F4F9F4F089557FD905828
:1013C000440F551F59F05F3F71F04795880F97FB09
:1013D000991F61F09F3F79F08795089512161306C3
:1013E0001406551FF2CF4695F1DF08C016161706F2
:1013F0001806991FF1CF8695710561050894089527
:10140000E894BB2766277727CB0197F9089565DF16
:1014100008F48FEF08959B01AC0160E070E080E874
:101420009FE385CE0BD0B9CFAADF28F0AFDF18F04D
:10143000952309F076CF7BCF1124E3CFBFDFA0F354
:10144000959FD1F3950F50E0551F629FF001729F59
:10145000BB27F00DB11D639FAA27F00DB11DAA1F78
:10146000649F6627B00DA11D661F829F2227B00DC5
:10147000A11D621F739FB00DA11D621F839FA00D50
:10148000611D221F749F3327A00D611D231F849FA0
:10149000600D211D822F762F6A2F11249F575040F7
:1014A0008AF0E1F088234AF0EE0FFF1FBB1F661F92
:1014B000771F881F91505040A9F79E3F510570F04B
:1014C00030CF9FCF5F3FECF3983EDCF38695779566
:1014D0006795B795F795E7959F5FC1F7FE2B880F46
:1014E000911D9695879597F908959B01AC019ACF28
:1014F000AA1BBB1B51E107C0AA1FBB1FA617B7073A
:1015000010F0A61BB70B881F991F5A95A9F7809555
:101510009095BC01CD01089597FB092E05260ED0AC
:1015200057FD04D014D00AD0001C38F450954095D3
:10153000309521953F4F4F4F5F4F0895F6F79095A7
:101540008095709561957F4F8F4F9F4F0895A1E2D1
:101550001A2EAA1BBB1BFD010DC0AA1FBB1FEE1F2D
:10156000FF1FA217B307E407F50720F0A21BB30B78
:10157000E40BF50B661F771F881F991F1A9469F7F4
:1015800060957095809590959B01AC01BD01CF0150
:061590000895F894FFCF5E
:0C1596002D002B0000007FC300007F43ED
:00000001FF
