:100000000C9472000C9493000C9493000C94930045
:100010000C9493000C9493000C9493000C94930014
:100020000C9493000C9493000C9493000C94930004
:100030000C9493000C9493000C9493000C949300F4
:100040000C9493000C9493000C9493000C949300E4
:100050000C9493000C9493000C9493000C949300D4
:100060000C9493000C9493000C9493000C949300C4
:100070000C9493000C9493000C9493000C949300B4
:100080000C9493000C9493000C9493000C949300A4
:100090000C9493000C9493000C9493000C94930094
:1000A0000C9493000C9493000C9493000C94930084
:1000B0000C9493000C9493000C9493000C94930074
:1000C0000C9493000C9493000C9493000C94930064
:1000D0000C9493000C9493000C9493000C94930054
:1000E0000C94930011241FBECFEFD1E2DEBFCDBF31
:1000F00000E00CBF12E0A0E0B2E0EAE4F5E000E0CE
:100100000BBF02C007900D92A030B107D9F712E0E3
:10011000A0E0B2E001C01D92AE30B107E1F70E944D
:1001200078020C94A3020C94000086E69EE00197EE
:10013000F1F700004098419880E388B9429AEFEFC8
:10014000F7E43197F1F700C000004298E6E6FEE0E0
:100150003197F1F700004098419888B9429AEFEF43
:10016000F7E43197F1F700C000004298E6E6FEE0C0
:100170003197F1F700004098419888B9429A8FEF83
:1001800097E40197F1F700C000004298E6E6FEE030
:100190003197F1F700004098419880E288B9429A7F
:1001A0008FEF97E40197F1F700C00000429808959F
:1001B00098B19F7098B998B1282F207F922B98B949
:1001C00040984198429AEFEFF7E43197F1F700C079
:1001D0000000429898B19F7098B998B18295807F3D
:1001E000892B88B940984198429A8FEF97E40197FC
:1001F000F1F700C000004298089586E69EE001975E
:10020000F1F7000088E20E94D80081E00E94D80047
:1002100086E00E94D8008EE00E94D80080E80E940C
:10022000D800089598B19F7098B998B1282F207F71
:10023000922B98B9409A4198429AEFEFF7E43197A0
:10024000F1F700C00000429898B19F7098B998B13A
:100250008295807F892B88B9409A4198429A8FEF86
:1002600097E40197F1F700C000004298089580E8F4
:100270000E94D8000895CF93DF93EC0188818823F2
:1002800031F021960E94120189918823D9F7DF91DC
:10029000CF910895823079F0833018F48130C9F419
:1002A00005C0833069F08430A1F40FC0862F8158D7
:1002B0000E94D8000895862F81540E94D800089586
:1002C000862F8D560E94D8000895862F8D520E9449
:1002D000D80008950F931F93CF93DF938A01E9010C
:1002E000882311F0662319F40E94370102C00E948E
:1002F0004A01C530D10571F4C80160E177E20E947E
:100300008F02CB01C09690930102809300020E945D
:10031000120103C0C430D105B9F4C80168EE73E01E
:100320000E948F02CB0170930302609302026AE085
:1003300070E00E948F02C09690930D0280930C0291
:100340000E94120181E001C080E0C330D10511F0AC
:100350008130B1F4C80164E670E00E948F02CB01E5
:1003600070930302609302026AE070E00E948F02C1
:10037000C09690930902809308020E94120181E0C6
:10038000C230D10511F08130B1F42AE030E0C8016B
:10039000B9010E948F02CB017093030260930202A5
:1003A000B9010E948F02C0969093070280930602C3
:1003B0000E94120181E0C130D10511F0813061F459
:1003C000C8016AE070E00E948F02C09690930B0211
:1003D00080930A020E941201C630D1051CF085E408
:1003E0000E941201DF91CF911F910F91089581E03A
:1003F0000E94D8000895AAE0B1E08C91846E8C939D
:10040000EBE0F1E08081887180838C9188618C932E
:100410008081886180830895E1E2F1E010828CEFB1
:100420008093250181E08093240193E0909329013A
:100430008FEF8093280190932B0180932A0181EA0A
:1004400080932001109222018DE080830895E9E2DB
:10045000F1E093E0908340818093280190932B01F9
:1004600080932A0181E061E050E023E030E00E94C7
:100470006A010895EBE0F1E090819871892B808307
:10048000089587B1876F87B988B1807888B9089552
:100490000E94FB010E944102089580EA0E943A02F4
:1004A000089584E40E943A02089584E80E943A0282
:1004B000089580E60E943A02089580E80E943A0278
:1004C000089580E20E943A02089580E40E943A0270
:1004D000089584E00E943A02089580E00E943A0262
:1004E0000895F8940E9448020E940C02789408959E
:1004F0000E9471020E9495000E94FD00C0E08C2FB6
:100500000E9427020E944D028FEF9FE7A4E08150D6
:100510009040A040E1F700C00000CF5FF0CFAA1BE1
:10052000BB1B51E107C0AA1FBB1FA617B70710F0DE
:10053000A61BB70B881F991F5A95A9F78095909510
:0A054000BC01CD010895F894FFCF2F
:00000001FF
